S00E000053414D4537302E7372656389
S214400000682C4020390C4000E90C4000E90C4000C8
S214400010E90C4000E90C4000E90C400000000000FC
S214400020000000000000000000000000E90C400056
S214400030E90C400000000000E90C4000E90C4000DC
S214400040E90C4000E90C4000E90C4000E90C400097
S214400050E90C4000E90C4000E90C4000E90C400087
S214400060E90C400000000000F1074000090840008D
S21440007021084000E90C4000E90C4000E90C400033
S2144000803908400051084000E90C4000E90C4000A7
S214400090E90C4000E90C4000E90C4000E90C400047
S2144000A0E90C4000E90C4000E90C4000E90C400037
S2144000B0E90C4000E90C4000E90C4000E90C400027
S2144000C0E90C4000E90C4000E90C4000E90C400017
S2144000D000000000E90C400000000000E90C400071
S2144000E0E90C4000E90C4000E90C4000E90C4000F7
S2144000F0E90C4000E90C4000E90C4000E90C4000E7
S214400100E90C4000E90C4000E90C4000E90C4000D6
S214400110E90C400000000000000000000000000065
S214400120E90C4000E90C4000E90C4000E90C4000B6
S214400130E90C400000000000E90C4000E90C4000DB
S21440014010B5054C237833B9044B13B10448AFF3CC
S21440015000800123237010BDB40B40200000000037
S214400160182940000C4B43B10C480D4910B5AFF36D
S21440017000800C48036823B910BD0A48036833B9A9
S2144001807047094B002BF7D0BDE810401847064B88
S214400190002BF5D0184700BF00000000182940008B
S2144001A0B80B4020182940000000000080B582B0FF
S2144001B000AF78607B68072B31D801A252F823F055
S2144001C01D024000E1014000E9014000F10140000D
S2144001D0F9014000010240000902400013024000BD
S2144001E00020114B98471AE001200F4B984716E025
S2144001F000200E4B984712E010200C4B98470EE01C
S21440020020200A4B98470AE03E210020084B98479A
S21440021005E03E210120064B984700E000BF00BFA6
S2144002200837BD4680BD00BF69094000D50940007B
S214400230450A400080B582B000AF78607B68072BE7
S21440024026D801A252F823F0690240006D02400011
S2144002506D0240007F0240007F0240007F02400067
S2144002607F0240007F024000012312E00B4B98477C
S2144002700346002B14BF01230023DBB209E0084BE2
S21440028098470346002B14BF01230023DBB200E04F
S214400290002318460837BD4680BD00BFA109400070
S2144002A0BD0A400080B483B000AF78607B68072BFF
S2144002B025D801A252F823F0D9024000DF024000C0
S2144002C0E5024000EB024000EF024000F30240002F
S2144002D0F7024000FB0240004FF4FA4310E04FF4B0
S2144002E000430DE04FF400430AE0084B08E0084B9B
S2144002F006E0084B04E0074B02E0064B00E0002314
S21440030018460C37BD465DF8047B704700093D0033
S21440031000127A00001BB70080B582B000AF0346DB
S214400320FB7100BFFB791846054B9847034683F0A0
S2144003300103DBB2002BF5D100BF0837BD4680BDB8
S2144003403502400080B586B000AFF8607A603B600A
S2144003500B46FB727B68002B07D13B68002B04D111
S214400360FB684FF470021A6019E0FB7A18460E4B91
S214400370984702467B68B2FBF3F37B617B693A6839
S21440038002FB03F37B613B68013B1A04074B1340B7
S2144003907A68D2B2134343F47C52FB681A6000BFBB
S2144003A01837BD4680BD00BFA50240000000FF07CD
S2144003B080B582B000AF786039603B68002B08D1CA
S2144003C0094B9847094A7B681B6843F00053936281
S2144003D005E0064A7B681B6843F48033D36100BF60
S2144003E00837BD4680BD00BFD90A400000060E4013
S2144003F080B582B000AF78607B68002B03D1054B98
S2144004009847034602E0044B984703461846083789
S214400410BD4680BDF50A4000110B400080B582B055
S21440042000AF0346FB71FB79033B042B08D8FB79EE
S2144004301846064B9847FB791846054B984700E008
S21440044000BF00BF0837BD4680BD00BFAD014000BD
S2144004501903400080B582B000AF786000BF78686E
S214400460044B98470346002BF9D00023184608371C
S214400470BD4680BDF103400080B500AF0620054B69
S2144004809847024613469B0013449A001344184666
S21440049080BD00BFA502400080B500AF024B984724
S2144004A00346184680BD00BF7904400090B583B02F
S2144004B000AF1348134B98470620134B9847381DF8
S2144004C0192301220621114CA0473B1D0021184646
S2144004D00F4B984700200F4B984702200E4B9847EB
S2144004E000200E4B98470E4B98470E4B98470346B6
S2144004F01846044B984700BF0C37BD4690BD00BF1A
S21440050000A3E111590E40001D0440004503400081
S214400510B10340005504400069084000E50840002B
S214400520F10C40009904400080B485B000AFF860FC
S214400530B9607A607B68002B03D0FB68BA685A665D
S21440054002E0FB68BA681A6600BF1437BD465DF81D
S214400550047B704780B485B000AFF860B9607A60BD
S214400560FB68BA68C3F884207B685B004FF400429F
S214400570B2FBF3F3013BC3F30D02FB68C3F88C20D8
S21440058000BF1437BD465DF8047B704780B483B027
S21440059000AF786039607B683A681A6300BF0C37F2
S2144005A0BD465DF8047B704780B483B000AF78608A
S2144005B039607B683A685A6300BF0C37BD465DF8C1
S2144005C0047B704780B487B000AFF860B9607A604B
S2144005D0BB68B3F1405F03D0BB68B3F1605F03D143
S2144005E0FB689B6B7B6102E0FB68DB6B7B617A6937
S2144005F07B681340002B01D1002300E001231846FE
S2144006001C37BD465DF8047B7047000080B584B05B
S21440061000AFF860B9607A60B968F868194B9847D7
S2144006207B6803F001031A46B968F868164B98478A
S2144006307B6803F00A03002B03D0FB68BA681A6293
S21440064002E0FB68BA685A627B6803F00203002B3C
S21440065004D0FB68BA68C3F8802008E07B6803F0E3
S2144006600803002B03D0FB68BA68C3F88420FB68F5
S214400670BA685A61FB68BA681A6000BF1037BD4650
S21440068080BD00BFF10640002905400080B584B01B
S21440069000AFF860B9607A603B60B968F868124BA2
S2144006A09847BA69B968F868104B98473B68002B7A
S2144006B003D0FB68BA681A6502E0FB68BA685A65F8
S2144006C07B68002B03D0FB68BA681A6302E0FB68BD
S2144006D0BA685A63FB68BA681A61FB68BA681A60F7
S2144006E000BF1037BD4680BDF106400029054000DA
S2144006F080B483B000AF786039607B683A685A64EB
S21440070000BF0C37BD465DF8047B704780B483B0AD
S21440071000AF78607B68DB6C18460C37BD465DF8EA
S214400720047B704780B483B000AF78607B689B6C76
S21440073018460C37BD465DF8047B704780B584B0DC
S21440074000AF786039607868264B9847F8607868DC
S214400750254B98470246FB681340FB60FB68002B1E
S2144007603CD00023BB6034E0204ABB681B011344E6
S2144007701A683B689A4226D11C4ABB681B01134440
S21440078004331A68FB681340002B1CD0174ABB681A
S2144007901B0113440C331B681449BA6812010A44FF
S2144007A010681249BA6812010A44043212681146A7
S2144007B098470E4ABB681B01134404331B68DB434F
S2144007C0FA681340FB60BB680133BB60BB68062B0E
S2144007D003D8FB68002BC7D100E000BF00BF10372E
S2144007E0BD4680BD0D07400025074000D00B402089
S2144007F080B500AF0A210248024B984700BF80BD33
S214400800000E0E403D07400080B500AF0B21024869
S214400810024B984700BF80BD00100E403D07400089
S21440082080B500AF0C210248024B984700BF80BD00
S21440083000120E403D07400080B500AF1021024830
S214400840024B984700BF80BD00140E403D07400055
S21440085080B500AF11210248024B984700BF80BDCB
S21440086000160E403D07400080B483B000AF78606D
S2144008707B68013B032B1AD801A252F823F000BF35
S21440088091084000970840009F084000A708400095
S21440089000237B600EE04FF480737B600AE04FF4E9
S2144008A040737B6006E04FF400737B6002E00023F9
S2144008B07B6000BF0A490A4B1B6B23F440727B687F
S2144008C013430B6300BF064B9B6E03F00803002BDD
S2144008D0F9D000BF0C37BD465DF8047B704700BFBB
S2144008E000060E4080B485B000AF78601D491D4BB1
S2144008F01B6B23F070027B6813430B634FF48053EB
S214400900FB6007E0FB68002B01D1012323E0FB6876
S214400910013BFB60134B9B6E03F00803002BF1D0AA
S214400920104A104B1B6B23F0030343F00203136380
S2144009304FF48053FB6007E0FB68002B01D1012396
S21440094009E0FB68013BFB60064B9B6E03F0080327
S214400950002BF1D0002318461437BD465DF8047BC3
S214400960704700BF00060E4080B483B000AF78608A
S2144009707B68012B05D10749064B9A68064B134303
S2144009808B60044B054A1A6000BF0C37BD465DF8C5
S214400990047B704710180E40000010A5080000A504
S2144009A080B400AF094B5B6903F08003002B07D08F
S2144009B0074B9B6E03F08003002B01D0012300E021
S2144009C000231846BD465DF8047B704710180E405D
S2144009D000060E4080B483B000AF78601549154BD2
S2144009E01A6A154B13430B6200BF124B9B6E03F4FF
S2144009F00033002BF9D00F490E4B1A6A0F4B1340A9
S214400A007A68134343F45C130B6200BF094B9B6E3A
S214400A1003F40033002BF9D00649064B1A6A084BFC
S214400A20134043F45C130B6200BF0C37BD465DF8C1
S214400A30047B704700060E40080037008FFFC8FF53
S214400A40FFFFC8FE80B483B000AF786039607B6833
S214400A50002B08D01349134B1B6A134A1A40134BFA
S214400A6013430B6218E00F490E4B1A6A104B1340A3
S214400A703A68120292B21A430E4B13430B6200BFFF
S214400A80084B9B6E03F00103002BF9D00549054B3C
S214400A901A6A094B13430B6200BF0C37BD465DF81C
S214400AA0047B704700060E40FCFFC8FE020037017C
S214400AB0FCFFC8FF010037000000370180B400AFDC
S214400AC0044B9B6E03F480331846BD465DF8047BAA
S214400AD0704700BF00060E4080B400AF044B4FF096
S214400AE000529A6200BFBD465DF8047B704700BF67
S214400AF000060E4080B400AF044B9B6E03F002032A
S214400B001846BD465DF8047B704700BF00060E40A1
S214400B1080B400AF044B9B6E03F040031846BD46BE
S214400B205DF8047B704700BF00060E4080B483B07B
S214400B3000AF78607B683F2B01D901232FE07B68AC
S214400B401F2B13D8194B9A6901217B6801FA03F3CE
S214400B501A4001217B6801FA03F39A421ED0134AD9
S214400B6001217B6801FA03F3136117E07B68203BA1
S214400B707B600E4BD3F8082101217B6801FA03F312
S214400B801A4001217B6801FA03F39A4206D0074ACD
S214400B9001217B6801FA03F3C2F8003100231846AE
S214400BA00C37BD465DF8047B704700BF00060E401C
S214400BB080B483B000AFEFF310837B607B68002B7C
S214400BC00CBF01230023DBB23B6072B6BFF35F8FDE
S214400BD0044B00221A703B6818460C37BD465DF839
S214400BE0047B70470A00402080B483B000AF786032
S214400BF07B68002B14BF01230023DBB218460C375A
S214400C00BD465DF8047B704780B582B000AF786023
S214400C107868074B98470346002B05D0054B0122C2
S214400C201A70BFF35F8F62B600BF0837BD4680BDFF
S214400C30E90B40000A00402080B584B000AF1E4B50
S214400C40FB601E4BBB60FA68BB689A420CD007E05C
S214400C50BB681A1DBA60FA68111DF96012681A60FE
S214400C60BB68174A9342F3D3164BBB6004E0BB689D
S214400C701A1DBA6000221A60BB68134A9342F6D324
S214400C80124BFB60124AFB6823F07F039360114BC4
S214400C9098477860104A104B1B6843F47003136003
S214400CA0BFF34F8FBFF36F8F78680C4B98470C4B52
S214400CB098470C4B9847FEE7182940000000402014
S214400CC0B40B4020B40B4020640C40200000400091
S214400CD000ED00E0B10B400088ED00E0090C40005C
S214400CE0792740005910400080B400AFFEE700006E
S214400CF080B400AF524B1B6B03F00303012B14D0A0
S214400D00012B02D3022B38D07AE04E4B5B6903F0BE
S214400D108003002B04D04C4B4FF400421A606FE027
S214400D20494B4FF4FA421A606AE0454B1B6A03F09F
S214400D308073002B03D0444B444A1A6060E0424B19
S214400D40434A1A603E4B1B6A03F07003102B04D0D4
S214400D50202B08D0002B0ED00EE03B4B1B685B00D0
S214400D60394A136008E0384B1A6813465B00134450
S214400D70354A136000E000BF42E0314B1B6A03F087
S214400D808073002B03D0304B304A1A601CE02E4B49
S214400D902F4A1A602A4B1B6A03F07003102B04D0AC
S214400DA0202B08D0002B0ED00EE0274B1B685B0094
S214400DB0254A136008E0244B1A6813465B00134428
S214400DC0214A136000E000BF1D4B1B6B03F003037A
S214400DD0022B14D11A4B9B6A1B0CC3F30A03013334
S214400DE0194A126802FB03F3174A1360144B9B6AB6
S214400DF0DBB2154A1268B2FBF3F3134A136000BF26
S214400E000F4B1B6B03F07003702B08D10E4B1B6807
S214400E10104AA2FB03235B080B4A13600AE0084B08
S214400E201B6B1B0903F00703074A126822FA03F3F9
S214400E30054A136000BFBD465DF8047B704700BF9F
S214400E4000060E4010180E400C004020001BB70055
S214400E5000093D00ABAAAAAA80B483B000AF786070
S214400E607B68194A934204D8184B4FF080621A6048
S214400E7023E07B68164A934203D8144B154A1A60FF
S214400E801BE07B68144A934203D8104B134A1A60FF
S214400E9013E07B68124A934203D80C4B114A1A60FF
S214400EA00BE07B68104A934204D8084B4FF004226C
S214400EB01A6002E0054B0D4A1A6000BF0C37BD466B
S214400EC05DF8047B704700BFFF2C3101000C0E40DC
S214400ED0FF59620200010004FF86930300020004EB
S214400EE0FFB3C40400030004FFE0F505000500045A
S214400EF080B483B000AF78607B68072B25D801A20A
S214400F0052F823F0250F40002B0F4000310F4000D1
S214400F10370F40003B0F40003F0F4000430F40005C
S214400F20470F40004FF4FA4310E04FF400430DE003
S214400F304FF400430AE0084B08E0084B06E0084B35
S214400F4004E0074B02E0064B00E0002318460C374F
S214400F50BD465DF8047B704700093D0000127A00EC
S214400F60001BB70080B500AF0620054B98470246E9
S214400F7013469B0013449A001344184680BD00BF96
S214400F80F10E400080B500AF024B98470346184626
S214400F9080BD00BF650F400090B583B002AF254BC3
S214400FA09847254B4FF400425A600A20234B9847F7
S214400FB01020224B98470023009300230022102144
S214400FC01F48204CA0470023009300230022042102
S214400FD01B481C4CA04700230093002300224FF0E0
S214400FE080711748174CA047002300930023002227
S214400FF008211348134CA047012216211248134BD0
S2144010009847C82216211048114B984700221521B0
S2144010100D480E4B9847012215210B480D4B98471B
S214401020C822152108480A4B984700BF0437BD46DA
S21440103090BD00BFAD04400050180E402D0B400040
S214401040000E0E408D06400000140E400D06400077
S21440105055054000290540002DE9F04F9BB000AFF4
S214401060A94B984700237B6600233B6600BF4FF49E
S21440107080024FF02051A548A54B98470346002BC9
S214401080F5D10421A348A44B98474FF08071A1485E
S214401090A24B984708219F48A04B98470223FB65E0
S2144010A067E23B6E002B02D000233B6667E29C4A19
S2144010B0FB6D52F823209B4B1046984702460B4642
S2144010C0994C4FF000009949A04703460C46C7E9A3
S2144010D00E344FF000034FF00004C7E9143432E2F8
S2144010E04FF480024FF020518848894B984703467A
S2144010F0002B40F096807B6E002B0CBF0123002314
S214401100DBB27B6610218348844B984785E0884B4A
S2144011109847034619464FF000020B461446A00077
S214401120F862F86A40EA9370F8629B00BB62D7E9BF
S2144011300A345B1844EB020422017A627A6A42EA75
S21440114013727A621A013A62D7E90812C91842EB5A
S21440115004020B461446DB1844EB040419462246A8
S21440116041F22B734FF00004CD1842EB040628469C
S2144011703146704C41F22C724FF00003A0470346B4
S2144011800C4618466C4B98474FF480024FF020515F
S2144011905E485F4B98470346002B06D17B6E002B7C
S2144011A00CBF01230023DBB27B66614B98470346A6
S2144011B019464FF000020B461446A000F861F86945
S2144011C040EA9370F8619B00BB61D7E906345B1830
S2144011D044EB02044FEA041949EA13794FEA03182C
S2144011E013EB080344EB0904DB1844EB04041946EC
S2144011F0224641F22B734FF00004CD1842EB040612
S214401200284631464B4C41F22C724FF00003A04723
S21440121003460C461846484B98477B6E002B7FF497
S21440122076AF4FF400124FF020513848384B98476D
S2144012300346002B02D101233B6697E1384AFB6DFB
S21440124052F82330002B40F081803C4AFB6D52F828
S2144012502330002B27D0394AFB6D52F823301D46E9
S2144012604FEAE576324B984703464FF0000403FBBF
S21440127006F105FB04F20A44A5FB03015318194680
S21440128041F22B734FF00004C01841EB0401294C87
S21440129041F22C724FF00003A04703460C46184616
S2144012A0254B984716E0224B984703464FF00004DC
S2144012B023494FF000025D1844EB020628463146AB
S2144012C01C4C204A4FF00003A04703460C461846E5
S2144012D0194B9847194AFB6D52F82320104B5B6810
S2144012E003FB02F20F4B1046984702460B46164C3D
S2144012F0D7E91401A04703460C46C7E91434102129
S2144013000448064B98471EE1990F400000140E40D3
S214401310C5054000000E0E408D054000A905400062
S21440132010004020E11D4000012140000000F03F39
S214401330850F4000E1234000010040209C004020F3
S214401340DF835A00E0835A00491B4000B24C4FF0FE
S2144013500002B24BD7E90E01A04703460C461A4698
S2144013602346AF4CD7E91401A04703460C46C7E9CD
S21440137014341021AB48AC4B9847A74CA4A3D3E9F0
S2144013800023D7E90E01A04703460C4618462146DF
S214401390A64C4FF000024FF08043A04703460C4651
S2144013A018462146A24C4FF000024FF00003A047DB
S2144013B00346002B39D1984C95A3D3E90023D7E9AF
S2144013C00E01A04703460C4618462146974C4FF060
S2144013D000024FF08043A04703460C46194622467B
S2144013E0944B08461146984705460E46924B9847FA
S2144013F003464FF0000403FB06F105FB04F20A44E3
S214401400A5FB0301531819468C4B4FF00004C01837
S21440141041EB04018A4C8B4A4FF00003A047034639
S2144014200C461846884B984716E0834B9847034629
S2144014304FF0000481494FF000025D1844EB02066D
S214401440284631467E4C7F4A4FF00003A04703466D
S2144014500C4618467C4B9847102172487B4B984761
S2144014606D4C6BA3D3E90023D7E90E01A047034692
S2144014700C46184621466D4C4FF000024FF0804314
S214401480A04703460C4618462146694C4FF00002DA
S2144014904FF00003A0470346002B39D15E4C5CA3B7
S2144014A0D3E90023D7E90E01A04703460C46184669
S2144014B021465E4C4FF000024FF08043A047034663
S2144014C00C46194622465B4B084611469847054649
S2144014D00E46594B984703464FF0000403FB06F16F
S2144014E005FB04F20A44A5FB030153181946534B67
S2144014F04FF00004C01841EB0401514C514A4FF0E4
S2144015000003A04703460C4618464F4B984716E044
S214401510494B984703464FF0000448494FF00002B5
S2144015205D1844EB020628463146454C454A4FF086
S2144015300003A04703460C461846434B98471021E5
S2144015403848424B9847424AFB6D52F82320414B5D
S2144015505B6803FB02F2404B104698473F4CD7E986
S2144015601423A0470346002B7FF4BAADFB6D01332E
S214401570FB65384B1A68FB6D9A423FF792AD4FF0C9
S21440158080712848284B9847042126482F4B984777
S214401590082124482D4B98470223FB64A2E23B6E69
S2144015A0002B02D000233B66A2E22D4AFB6C52F889
S2144015B02320294B1046984702460B461B4C4FF0BB
S2144015C000002849A04703460C46C7E90C344FF0B4
S2144015D000034FF00004C7E910346DE24FF4800278
S2144015E04FF020512048214B98470346002B40F0AF
S2144015F0C9807B6E002B0CBF01230023DBB27B66C9
S21440160010210848114B9847B8E000BFAFF3008060
S2144016100000000080842E41AD1E400000408F40F8
S214401620491B4000000E0E408D0540000121400041
S2144016307D23400011244000850F4000DF835A0080
S214401640E1234000E0835A0001004020A905400005
S2144016509C00402010004020E11D4000CD2340006B
S214401660280140200000F03F00140E40C505400011
S214401670B74B9847034619464FF000020B461446B0
S214401680A0007861786940EA937078619B003B617E
S214401690D7E904345B1844EB02042201FA60FA6886
S2144016A042EA1372FA601A01BA60D7E90212C91800
S2144016B042EB04020B461446DB1844EB040419467E
S2144016C0224641F22B734FF00004CD1842EB04063D
S2144016D0284631469F4C41F22C724FF00003A047FB
S2144016E003460C4618469C4B98474FF480024FF0F2
S2144016F020519A489A4B98470346002B06D17B6E5A
S214401700002B0CBF01230023DBB27B66904B98472F
S214401710034619464FF000020B461446A000786078
S214401720786840EA937078609B003B60D7E9003465
S2144017305B1844EB02044FEA041B4BEA137B4FEA68
S214401740031A13EB0A0344EB0B04DB1844EB0404C4
S2144017501946224641F22B734FF00004CD1842EB57
S2144017600406284631467B4C41F22C724FF000036B
S214401770A04703460C461846774B98477B6E002B8F
S2144017807FF476AF4FF400124FF020517348744BFD
S21440179098470346002B02D101233B669FE1714ADE
S2144017A0FB6C52F82330002B5ED16F4AFB6C52F82C
S2144017B02330002B27D06C4AFB6C52F823301D4652
S2144017C04FEAE576624B984703464FF0000403FB2A
S2144017D006F105FB04F20A44A5FB0301531819461B
S2144017E041F22B734FF00004C01841EB0401594CF2
S2144017F041F22C724FF00003A04703460C461846B1
S214401800554B984716E0524B984703464FF0000416
S21440181056494FF000025D1844EB02062846314612
S2144018204C4C534A4FF00003A04703460C4618461C
S214401830494B98474C4AFB6C52F82320494B5B680F
S21440184003FB02F24B4B1046984702460B464A4C67
S214401850D7E91001A04703460C46C7E910341021CB
S2144018604648474B984727E1464C4FF00002464BC8
S214401870D7E90C01A04703460C461A4623463E4C81
S214401880D7E91001A04703460C46C7E9103410219B
S2144018903A483E4B98473B4C2BA3D3E90023D7E925
S2144018A00C01A04703460C4618462146384C4FF0DC
S2144018B000024FF08043A04703460C461846214698
S2144018C0344C4FF000024FF00003A0470346002B75
S2144018D064D12C4C1CA3D3E90023D7E90C01A047C4
S2144018E003460C4618462146294C4FF000024FF05E
S2144018F08043A04703460C4619462246264B0846D8
S2144019001146984705460E46114B984703464FF0FA
S214401910000403FB06F105FB04F20A44A5FB0301A1
S21440192053181946114B4FF00004C01841EB040100
S214401930084C0F4A4FF00003A04703460C46184693
S214401940054B984741E000BF0000000080842E41D0
S214401950850F4000E12340000100402000140E4067
S214401960C50540002801402058044020DF835A0027
S214401970E0835A00E11D4000491B4000000E0E4027
S214401980A9054000AD1E400000408F408D05400038
S214401990012140007D23400011244000584B9847C9
S2144019A003464FF0000457494FF000025D1844EBE1
S2144019B0020628463146544C544A4FF00003A0478E
S2144019C003460C461846524B984710215148524BF6
S2144019D09847524C48A3D3E90023D7E90C01A047C7
S2144019E003460C46184621464D4C4FF000024FF039
S2144019F08043A04703460C4618462146494C4FF0C4
S214401A0000024FF00003A0470346002B39D1434C59
S214401A1039A3D3E90023D7E90C01A04703460C4677
S214401A20184621463E4C4FF000024FF08043A047F8
S214401A3003460C46194622463B4B084611469847F5
S214401A4005460E462E4B984703464FF0000403FBD0
S214401A5006F105FB04F20A44A5FB03015318194698
S214401A60284B4FF00004C01841EB0401264C274A8F
S214401A704FF00003A04703460C461846244B9847B1
S214401A8016E01F4B984703464FF000041D494FF0A1
S214401A9000025D1844EB0206284631461A4C1B4AA3
S214401AA04FF00003A04703460C461846184B98478D
S214401AB010211848184B98471C4AFB6C52F82320B4
S214401AC01B4B5B6803FB02F21A4B104698471A4CB6
S214401AD0D7E91023A0470346002B7FF47FADFB6C6D
S214401AE00133FB64124B1A68FB6C9A423FF757ADC2
S214401AF0FFF7C7BAAFF300800000000080842E4195
S214401B00850F4000DF835A00E1234000E0835A00FF
S214401B1001004020000E0E40A9054000AD1E4000CA
S214401B20012140007D2340001124400058044020FD
S214401B3028014020E11D4000CD23400081F00041B7
S214401B4002E000BF83F0004330B54FEA41044FEA5D
S214401B50430594EA050F08BF90EA020F1FBF54EAF8
S214401B60000C55EA020C7FEA645C7FEA655C00F094
S214401B70E2804FEA5454D4EB5555B8BF6D420CDD65
S214401B802C4480EA020281EA030382EA000083EAE8
S214401B90010180EA020281EA0303362D88BF30BD88
S214401BA011F0004F4FEA01314FF4801C4CEA1131DE
S214401BB002D0404261EB410113F0004F4FEA03333D
S214401BC04CEA133302D0524263EB430394EA050FC8
S214401BD000F0A780A4F10104D5F1200E0DDB02FA37
S214401BE00EFC22FA05F2801841F1000103FA0EF2CB
S214401BF0801843FA05F359410EE0A5F120050EF191
S214401C00200E012A03FA0EFC28BF4CF0020C43FAC1
S214401C1005F3C01851EBE37101F0004507D54FF0CE
S214401C20000EDCF1000C7EEB00006EEB0101B1F51E
S214401C30801F1BD3B1F5001F0CD349085FEA300064
S214401C404FEA3C0C04F101044FEA445212F5800F6F
S214401C5080F09A80BCF1004F08BF5FEA500C50F10C
S214401C60000041EB045141EA050130BD5FEA4C0CEF
S214401C70404141EB010111F4801FA4F10104E9D178
S214401C8091F0000F04BF01460020B1FA81F308BF6F
S214401C902033A3F10B03B3F120020CDA0C3208DD3B
S214401CA002F1140CC2F10C0201FA0CF021FA02F116
S214401CB00CE002F11402D8BFC2F1200C01FA02F186
S214401CC020FA0CFCDCBF41EA0C019040E41AA2BFAB
S214401CD001EB0451294330BD6FEA04041F3C1CDA73
S214401CE00C340EDC04F11404C4F1200220FA04F093
S214401CF001FA02F340EA030021FA04F345EA03013D
S214401D0030BDC4F10C04C4F1200220FA02F001FAFE
S214401D1004F340EA0300294630BD21FA04F0294680
S214401D2030BD94F0000F83F4801306BF81F4801119
S214401D300134013D4EE77FEA645C18BF7FEA655C8C
S214401D4029D094EA050F08BF90EA020F05D054EA5E
S214401D50000C04BF1946104630BD91EA030F1EBF63
S214401D600021002030BD5FEA545C05D14000494167
S214401D7028BF41F0004130BD14F580043CBF01F55A
S214401D80801130BD01F0004545F0FE4141F4700140
S214401D904FF0000030BD7FEA645C1ABF194610461B
S214401DA07FEA655C1CBF0B46024650EA013406BF1C
S214401DB052EA033591EA030F41F4002130BD00BFDB
S214401DC090F0000F04BF0021704730B54FF4806498
S214401DD004F132044FF000054FF0000150E700BF19
S214401DE090F0000F04BF0021704730B54FF4806478
S214401DF004F1320410F0004548BF40424FF0000165
S214401E003EE700BF42004FEAE2014FEA31014FEAA7
S214401E1002701FBF12F07F4393F07F4F81F06051F6
S214401E20704792F0000F14BF93F07F4F704730B565
S214401E304FF4607401F0004521F0004120E700BFF8
S214401E4050EA010208BF704730B54FF000050AE07F
S214401E5050EA010208BF704730B511F0004502D580
S214401E60404261EB41014FF4806404F132045FEA82
S214401E70915C3FF4DCAE4FF003025FEADC0C18BF27
S214401E8003325FEADC0C18BF033202EBDC02C2F11D
S214401E90200300FA03FC20FA02F001FA03FE40EAAF
S214401EA00E0021FA02F11444C1E600BF70B54FF0AF
S214401EB0FF0C4CF4E06C1CEA11541DBF1CEA135591
S214401EC094EA0C0F95EA0C0F00F0DEF82C4481EAF9
S214401ED0030621EA4C5123EA4C5350EA013518BF19
S214401EE052EA033541F4801143F4801338D0A0FB06
S214401EF002CE4FF00005E1FB02E506F00042E0FBB3
S214401F0003E54FF00006E1FB03569CF0000F18BFB8
S214401F104EF0010EA4F1FF04B6F5007F64F5407460
S214401F2004D25FEA4E0E6D4146EB060642EAC621F3
S214401F3041EA55514FEAC52040EA5E504FEACE2E60
S214401F40B4F1FD0C88BFBCF5E06F1ED8BEF1004F63
S214401F5008BF5FEA500E50F1000041EB045170BDDF
S214401F6006F0004646EA010140EA020081EA030123
S214401F70B4EB5C04C2BFD4EB0C0541EA045170BD1F
S214401F8041F480114FF0000E013C00F3AB8014F199
S214401F90360FDEBF002001F0004170BDC4F10004E2
S214401FA0203C35DA0C341BDC04F11404C4F1200563
S214401FB000FA05F320FA04F001FA05F240EA0200BE
S214401FC001F0004221F0004110EBD37021FA04F6F4
S214401FD042EB06015EEA430E08BF20EAD37070BDAE
S214401FE0C4F10C04C4F1200500FA04F320FA05F00D
S214401FF001FA04F240EA020001F0004110EBD3700F
S21440200041F100015EEA430E08BF20EAD37070BD7E
S214402010C4F1200500FA05F24EEA020E20FA04F357
S21440202001FA05F243EA020321FA04F001F0004106
S21440203021FA04F220EA020000EBD3705EEA430E77
S21440204008BF20EAD37070BD94F0000F0FD101F0A6
S2144020500046400041EB010111F4801F08BF013CDF
S214402060F7D041EA060195F0000F18BF704703F01D
S2144020700046520043EB030313F4801F08BF013DA4
S214402080F7D043EA0603704794EA0C0F0CEA135560
S21440209018BF95EA0C0F0CD050EA410618BF52EA1A
S2144020A04306D1D181EA030101F000414FF0000020
S2144020B070BD50EA410606BF1046194652EA43062E
S2144020C019D094EA0C0F02D150EA013613D195EAA2
S2144020D00C0F05D152EA03361CBF104619460AD1EA
S2144020E081EA030101F0004141F0FE4141F47001F4
S2144020F04FF0000070BD41F0FE4141F4780170BDE4
S21440210070B54FF0FF0C4CF4E06C1CEA11541DBF48
S2144021101CEA135594EA0C0F95EA0C0F00F0A7F84A
S214402120A4EB050481EA030E52EA03354FEA013177
S21440213000F088804FEA03334FF0805545EA13138A
S21440214043EA12634FEA022245EA111545EA106552
S2144021504FEA00260EF000419D4208BF964244F1E9
S214402160FD0404F5407402D25B084FEA3202B61A08
S21440217065EB03055B084FEA32024FF480104FF4DC
S214402180002CB6EB020E75EB030E22BFB61A754650
S21440219040EA0C005B084FEA3202B6EB020E75EBE3
S2144021A0030E22BFB61A754640EA5C005B084FEA4B
S2144021B03202B6EB020E75EB030E22BFB61A754618
S2144021C040EA9C005B084FEA3202B6EB020E75EB23
S2144021D0030E22BFB61A754640EADC0055EA060EE4
S2144021E018D04FEA051545EA16754FEA06164FEA27
S2144021F0C30343EA52734FEAC2025FEA1C1CC0D1D3
S21440220011F4801F0BD141EA00014FF000004FF05F
S214402210004CB6E711F4801F04BF01430020B4F120
S214402220FD0C88BFBCF5E06F3FF6AFAEB5EB030CD8
S21440223004BFB6EB020C5FEA500C50F1000041EBD5
S214402240045170BD0EF0004E4EEA113114EB5C04A2
S214402250C2BFD4EB0C0541EA045170BD41F4801175
S2144022604FF0000E013C90E645EA060E8DE60CEA7D
S214402270135594EA0C0F08BF95EA0C0F3FF43BAF9A
S21440228094EA0C0F0AD150EA01347FF434AF95EA51
S2144022900C0F7FF425AF104619462CE795EA0C0F35
S2144022A006D152EA03353FF4FDAE1046194622E702
S2144022B050EA410618BF52EA43067FF4C5AE50EADC
S2144022C041047FF40DAF52EA43057FF4EBAE12E7CC
S2144022D04FF0FF3C06E000BF4FF0010C02E000BFAD
S2144022E04FF0010C4DF804CD4FEA410C7FEA6C5C90
S2144022F04FEA430C18BF7FEA6C5C1BD001B050EA33
S214402300410C0CBF52EA430C91EA030F02BF90EA1D
S214402310020F0020704710F1000F91EA030F58BFDC
S214402320994208BF90422CBFD8176FEAE37040F03E
S214402330010070474FEA410C7FEA6C5C02D150EADC
S214402340013C07D14FEA430C7FEA6C5CD6D152EA97
S214402350033CD3D05DF8040B704700BF844610465C
S21440236062468C461946634600E000BF01B5FFF75B
S214402370B7FF002848BF10F1000F01BD4DF808ED2B
S214402380FFF7F4FF0CBF012000205DF808FB00BFFC
S2144023904DF808EDFFF7EAFF34BF012000205DF856
S2144023A008FB00BF4DF808EDFFF7E0FF94BF0120A3
S2144023B000205DF808FB00BF4DF808EDFFF7CEFFA4
S2144023C094BF012000205DF808FB00BF4DF808EDE3
S2144023D0FFF7C4FF34BF012000205DF808FB00BFB4
S2144023E053B94AB9002908BF00281CBF4FF0FF3137
S2144023F04FF0FF3000F09EB9ADF1080C6DE904CE09
S21440240000F02AF8DDF804E0DDE9022304B0704766
S214402410D0B500220E4B06460F46FFF747FD00F0AC
S2144024208BF90446FFF7CCFC00220A4BFFF73EFD33
S21440243002460B4630463946FFF784FB00F07CF9EF
S2144024402346002242EA000210461946D0BD00BF8D
S2144024500000F03D0000F0412DE9F0478C460D4667
S2144024600446089E002B51D18A4217466DD9B2FACF
S21440247082FEBEF1000F0BD0CEF1200C01FA0EF515
S21440248020FA0CFC02FA0EF74CEA050C00FA0EF4A1
S2144024904FEA174A250CBCFBFAF81FFA87F90AFBE5
S2144024A018CC45EA0C4508FB09F3AB420AD9ED19AE
S2144024B008F1FF3280F02381AB4240F22081A8F140
S2144024C002083D44ED1AA4B2B5FBFAF00AFB1055DB
S2144024D044EA054400FB09F9A14509D9E41900F18D
S2144024E0FF3380F00A81A14540F2078102383C4420
S2144024F0A4EB090440EA08400021002E61D024FAEB
S2144025000EF4002334607360BDE8F0878B4207D931
S214402510002E54D0002186E821000846BDE8F0870A
S214402520B3FA83F1002940F08E80AB4202D3824258
S21440253000F2FA80841A65EB03050120AC46002EB3
S2144025403FD086E81010BDE8F08712B90127B7FBE8
S214402550F2F7B7FA87FEBEF1000F34D1EB1B3A0C08
S2144025601FFA87FC0121B3FBF2F8250C02FB183357
S21440257045EA03450CFB08F3AB4207D9ED1908F1D1
S214402580FF3002D2AB4200F2D1808046ED1AA3B2B1
S214402590B5FBF2F002FB105543EA05440CFB00FC89
S2144025A0A44507D9E41900F1FF3302D2A44500F24E
S2144025B0B8801846A4EB0C0440EA08409DE7314634
S2144025C03046BDE8F087CEF1200405FA0EF307FA50
S2144025D00EF720FA04F83A0C25FA04F448EA030801
S2144025E0B4FBF2F14FEA184502FB11441FFA87FC90
S2144025F045EA044501FB0CF3AB4200FA0EF409D958
S214402600ED1901F1FF3080F08A80AB4240F28780BE
S21440261002393D44EB1A1FFA88F5B3FBF2F002FB91
S214402620103345EA034500FB0CF3AB4207D9ED19DE
S21440263000F1FF386FD2AB426DD902383D44EB1AF9
S21440264040EA01418FE7C1F1200722FA07F88B40A4
S21440265005FA01F448EA030320FA07FE4FEA134C52
S214402660FD404EEA040EB5FBFCF94FEA1E440CFB57
S21440267019551FFA83F844EA054509FB08F4AC42AD
S21440268002FA01F200FA01FA08D9ED1809F1FF3012
S21440269043D2AC4241D9A9F102091D442D1B1FFA71
S2144026A08EFEB5FBFCF00CFB10554EEA054400FBD5
S2144026B008F8A04507D9E41800F1FF3529D2A0450F
S2144026C027D902381C4440EA0940A4EB0804A0FB82
S2144026D002894C45C6464D4615D312D056B1BAEB84
S2144026E00E0364EB050404FA07F7CB401F43CC40C7
S2144026F0376074600021BDE8F0871846F8E69046DB
S214402700E0E6C245EAD2B8EB020E69EB03050138B3
S214402710E4E72846D7E7404691E78146BEE70146CC
S21440272078E702383C4445E7084608E7A8F102083F
S2144027303D442BE7704700BF4A0011D212F5001205
S21440274011D20DD56FF47873B3EB62520ED44FEAC4
S214402750C12343F0004343EA505323FA02F0704744
S2144027604FF00000704750EA013002D14FF0FF3082
S21440277070474FF00000704770B50F4E0F4D761BF8
S214402780B61018BF002405D0013455F8043B9847CE
S214402790A642F9D10A4E0B4D761B00F0A7F8B610AC
S2144027A018BF002406D0013455F8043B9847A6428B
S2144027B0F9D170BD70BD00BFF8284000F828400031
S2144027C000294000F8284000024B13B1024800F0B0
S2144027D005B8704700000000E92740000023014686
S2144027E01A46184600F01EB838B50A4C0A4D641B07
S2144027F0A4100AD004F18043013B05EB8305013C5D
S21440280055F804399847002CF9D1BDE8384000F017
S21440281077B800BF102940000C294000704700BF21
S214402820704700BF2DE9F8432C4D06462868984669
S2144028300F469146FFF7F2FF294B1C68D4F8483103
S214402840002B3ED05A681F2A1CDC02F1010E76B1DE
S21440285003EB82010124C1F88890D3F888019440A4
S2144028602043022EC3F88801C1F8088123D00232E3
S214402870C3F804E0286843F82270FFF7D1FF002031
S214402880BDE8F883174B0BB34FF4C870AFF3008026
S2144028900346D8B1D4F848210260002141600A4678
S2144028A0C4F848014FF0010EC0F88811C0F88C11EA
S2144028B0002EDCD0CCE7D3F88C110C43C3F88C4107
S2144028C0D5E704F5A673C4F84831BBE72868FFF798
S2144028D0A7FF4FF0FF30BDE8F88300BFB00B4020A5
S2144028E0E82840000000000088074020F8B500BFF8
S2144028F0F8BC08BC9E467047C927400065014000AA
S214402900F8B500BFF8BC08BC9E4670474101400081
S20C40291048FBFF7F01000000B8
S214402918BFF35F8F0138FBD17047010000093D00C7
S214402928230000004A0100005D0100008801000005
S2144029380B020000260100004A0100005D0100006D
S21440294888010000B8010000EE010000BA0200004D
S214402958B8010000EE0100000B0200004B02000028
S214402968930200004A0100005D0100008801000053
S2144029780B0200004B02000093020000BA0200005F
S2144029888801000000000000880100009302000053
S2144029984B02000088010000930200004B02000032
S2144029A888010000930200004B020000230000004C
S2144029B80C0000000400000008000000280000008A
S2144029C80C00000004000000300000000C0000006E
S2144029D80400000008000000280000000C0000006A
S2144029E80400000010000000100000001000000066
S2144029F80C0000000400000008000000280000004A
S214402A080C00000004000000300000000C0000002D
S214402A180100000004000000100000000C00000048
S214402A2804000000100000000C0000000400000035
S214402A381000000020000000CB0000004A01000003
S214402A4888010000B8010000B8010000000000003E
S214402A58B8010000EE0100000B0200000B02000067
S214402A68000000000B0200004B020000EE010000D0
S214402A78EE01000000000000B801000088010000D8
S214402A88B8010000000000004A010000880100006C
S214402A98B8010000B801000000000000B8010000BE
S214402AA8EE0100000B0200000B02000000000000D0
S214402AB80B0200004B020000EE010000EE01000091
S214402AC800000000B801000088010000B8010000BE
S214402AD8000000004A01000088010000B80100001C
S214402AE8B801000000000000B80100000B0200001A
S214402AF84B0200004B020000000000004B020000A2
S214402B0893020000BA020000BA020000000000006B
S214402B18930200004B02000093020000B801000038
S214402B2800000000B8010000EE0100000B020000A3
S214402B380B020000000000004B0200009302000059
S214402B48B801000000000000B80100000B020000B9
S214402B58EE010000EE010000000000000B0200003D
S214402B68B8010000EE01000000000000B8010000B7
S214402B78B8010000B8010000EE0100000B0200009A
S214402B880B020000000000000B0200004B02000091
S214402B98EE010000EE01000000000000B801000051
S214402BA888010000B8010000000000004A0100004B
S214402BB888010000B8010000B801000000000000CD
S214402BC8B8010000EE0100000B0200000B020000F6
S214402BD8000000000B0200004B020000EE0100005F
S214402BE8EE01000000000000B80100008801000067
S214402BF8B8010000000000004A01000088010000FB
S214402C08B8010000B801000000000000B80100004C
S214402C180B0200004B0200004B02000000000000C0
S214402C284B02000093020000BA020000BA020000FD
S214402C3800000000930200004B02000093020000D0
S214402C48B801000000000000B8010000EE010000D6
S214402C580B0200000B020000000000004B020000C0
S214402C6893020000B801000000000000B801000010
S214402C780B020000EE010000EE010000000000001C
S214402C880B020000B8010000EE0100000000000042
S214402C98930200000000000000000000BA02000096
S214402CA800000000000000009302000093020000AD
S214402CB8000000001003000000000000930200001F
S214402CC84B02000000000000000000004B0200001D
S214402CD800000000000000000B020000000000009A
S214402CE800000000EE0100000B020000000000009B
S214402CF8EE01000000000000B8010000930200004A
S214402D080000000000000000BA02000000000000BA
S214402D18000000009302000093020000000000003C
S214402D281003000000000000930200004B02000061
S214402D3800000000000000004B02000000000000F9
S214402D48000000000B020000000000000000000029
S214402D58EE0100000B02000000000000EE0100003B
S214402D6800000000B8010000CB0000007D00000015
S214402D787D000000FA0000007D0000007D00000095
S214402D887D0000007D000000FA0000007D00000085
S214402D987D0000007D0000007D000000FA00000075
S214402DA87D0000007D0000007D0000007D000000E2
S214402DB8770100007D0000007D0000007D000000D7
S214402DC8FA0000007D0000007D0000007D00000045
S214402DD87D000000FA0000007D0000007D00000035
S214402DE87D0000007D000000FA0000007D00000025
S214402DF87D0000007D0000007D0000007701000097
S214402E087D0000007D0000007D000000FA00000004
S214402E187D0000007D0000007D0000007D00000071
S214402E28FA0000007D0000007D0000007D000000E4
S214402E387D000000FA0000007D0000007D000000D4
S214402E487D0000007D0000007D000000FA000000C4
S214402E587D0000007D0000007D000000FA000000B4
S214402E687D0000007D000000FA0000007D000000A4
S214402E78FA0000007D0000007D0000007D00000094
S214402E88FA0000007D0000007D0000007D00000084
S214402E987D0000007701000077010000FA0000007E
S214402EA87D0000007D0000007D000000FA00000064
S214402EB87D0000007D0000007D0000007D000000D1
S214402EC8FA0000007D0000007D0000007D00000044
S214402ED87D000000770100007D0000007D000000B6
S214402EE87D000000FA0000007D0000007D00000024
S214402EF87D0000007D000000FA0000007D00000014
S214402F087D0000007D0000007D000000FA00000003
S214402F187D0000007D0000007D0000007D00000070
S214402F28770100007D0000007D0000007D00000065
S214402F38FA0000007D0000007D0000007D000000D3
S214402F487D000000FA0000007D0000007D000000C3
S214402F587D0000007D000000FA0000007D000000B3
S214402F687D0000007D0000007D0000007D00000020
S214402F78FA0000007D0000007D0000007D00000093
S214402F88FA0000007D0000007D000000FA00000006
S214402F987D000000FA0000007D0000007D00000073
S214402FA87D000000FA0000007D0000007D00000063
S214402FB87D0000007D0000007701000077010000DA
S214402FC8FA0000007D00000077010000FA000000CB
S214402FD87D000000770100007D0000007D000000B5
S214402FE87D0000007D0000007D0000007D000000A0
S214402FF87D0000007D00000077010000FA00000018
S2144030087D00000077010000FA0000007D00000007
S214403018770100007D0000007D0000007D00000074
S2144030287D0000007D000000F4010000FA0000006A
S2144030387D00000077010000FA0000007D000000D7
S214403048770100007D0000007D0000007D00000044
S2144030587D0000007D0000007D0000007D0000002F
S2144030687D00000077010000FA0000007D000000A7
S21440307877010000FA0000007D000000770100009C
S2144030887D0000007D0000007D0000007D000000FF
S2144030987D000000F401000000000000740A402093
S2144030A8DC0A4020440B40200000000000000000DE
S2144030B800000000000000000000000000000000C3
S2144030C800000000000000000000000000000000B3
S2144030D800000000000000000000000000000000A3
S2144030E80000000000000000000000000000000093
S2144030F80000000000000000000000000000000083
S2144031080000000000000000000000000000000072
S2144031180000000000000000000000000000000062
S2144031280000000000000000000000000000000052
S2144031380000000000000000000000000000000042
S21440314801000000000000000E33CDAB34126DE6DF
S214403158ECDE05000B000000000000000000000048
S2144031680000000000000000000000000000000012
S2144031780000000000000000000000000000000002
S21440318800000000000000000000000000000000F2
S21440319800000000000000000000000000000000E2
S2084034C8400C40200F
S804400C3976
