S00E000053414D4537302E7372656389
S214400000482B4020C1044000BD044000BD044000D1
S214400010BD044000BD044000BD0440000000000098
S214400020000000000000000000000000BD0440008A
S214400030BD04400000000000BD044000BD04400078
S214400040BD044000BD044000BD044000BD04400067
S214400050BD044000BD044000BD044000BD04400057
S214400060BD04400000000000E5024000F9024000E8
S2144000700D034000BD044000BD044000BD044000E8
S2144000802103400035034000BD044000BD0440004D
S214400090BD044000BD044000BD044000BD04400017
S2144000A0BD044000BD044000BD044000BD04400007
S2144000B0BD044000BD044000BD044000BD044000F7
S2144000C0BD044000BD044000BD044000BD044000E7
S2144000D000000000BD04400000000000BD044000D9
S2144000E0BD044000BD044000BD044000BD044000C7
S2144000F0BD044000BD044000BD044000BD044000B7
S214400100BD044000BD044000BD044000BD044000A6
S214400110BD04400000000000000000000000000099
S214400120BD044000BD044000BD044000BD04400086
S214400130BD04400000000000BD044000BD04400077
S21440014010B5054C237833B9044B13B10448AFF3CC
S21440015000800123237010BD940A40200000000058
S214400160E40C40000C4B43B10C480D4910B5AFF3BE
S21440017000800C48036823B910BD0A48036833B9A9
S2144001807047094B002BF7D0BDE810401847064B88
S214400190002BF5D0184700BF00000000E40C4000DC
S2144001A0980A4020E40C40000000000010B51048BB
S2144001B0104B98473E2100200F4B98470F4CA047C6
S2144001C00028FCD00E4B98470E4A0F4B9A620F4CB5
S2144001D0A0470028FCD002200D4B984700200D4B2E
S2144001E098470D4B98470248024B984710BD00BFB2
S2144001F000A3E11195064000E503400039044000A5
S21440020049044000013F182000060E4059044000B3
S2144002104903400081034000890540000AB9016651
S2144002207047416670470163704741637047416459
S21440023012F0010F0DD1016612F00A0F0BD00162C9
S21440024012F0020F09D112F0080F08D0C0F884103F
S21440025005E04166F0E74162F2E7C0F88010416190
S2144002600160704710B4019C41644CB901664BB1C3
S21440027001654AB94163016101605DF8044B70470E
S2144002804166F4E74165F4E70163F4E7C06C704704
S214400290806C70472DE9F041044688460E4B9847DF
S2144002A0054620460D4B9847054013D00C4C04F1AC
S2144002B0600603E0B4420DD010345DB1206840457E
S2144002C0F8D161682942F5D0E3689847636825EA23
S2144002D00305EFE7BDE8F0818D0240009102400043
S2144002E0B00A402008B50A210148024B984708BD8D
S2144002F0000E0E409502400008B50B210148024B07
S214400300984708BD00100E409502400008B50C21E5
S2144003100148024B984708BD00120E409502400027
S21440032008B510210148024B984708BD00140E40FE
S2144003309502400008B511210148024B984708BD78
S21440034000160E4095024000032811D0042812D013
S21440035002280CBF4FF480710021084A136B23F427
S21440036040730B431363936E13F0080FFBD0704734
S2144003704FF44071F1E74FF40071EEE700060E408F
S214400380174A136B23F0700318431063936E13F0F1
S214400390080F0AD14FF4805311498A6E12F0080FA5
S2144003A003D1013BF9D1012070470D4A136B23F06E
S2144003B0030343F002031363936E13F0080F0AD14E
S2144003C04FF4805306498A6E12F0080F05D1013B60
S2144003D0F9D101207047002070470020704700BFC9
S2144003E000060E40A0B90E48036A090289B20D4ABB
S2144003F01A400D4B1343194301620246936E13F0A5
S214400400010FFBD0064A116A084B0B431362704734
S21440041003490B6A064A1A40064B13430B62704761
S21440042000060E40FCFFC8FF010037000000370101
S214400430FCFFC8FE02003701024B986E00F4803085
S214400440704700BF00060E404FF00052014B9A62C4
S214400450704700BF00060E40024B986E00F0020048
S214400460704700BF00060E403F281ED81F280CD8F5
S214400470114B9A6901238340934318D0012303FA12
S21440048000F00D4B18610020704720380A4BD3F817
S21440049008210123834093430BD0012303FA00F045
S2144004A0054BC3F80001002070470120704700202C
S2144004B070470020704700BF00060E40FEE7000071
S2144004C000B583B0254B264A9A4210D0254B234A86
S2144004D09A420CD2013B9B1A23F003030433134485
S2144004E01F4951F8040B42F8040B9A42F9D11E4BAF
S2144004F01E4A9A420AD2013B9B1A23F00303043356
S2144005001344002142F8041B9342FBD1184A194B6E
S21440051023F07F039360EFF31083B3FA83F35B0912
S214400520019372B6BFF35F8F0022134B1A70019986
S214400530124A136843F470031360BFF34F8FBFF340
S2144005406F8F29B101220C4B1A70BFF35F8F62B6D2
S2144005500B4B98470B4B9847FEE700BF00004020E8
S214400560E40C4000940A4020440B4020940A40206B
S21440057000ED00E0000040000A00402088ED00E06A
S214400580450B4000650740003B4B1B6B03F00303E5
S214400590012B1DD083B1022B36D0374B1B6B03F09B
S2144005A07003702B5FD0344B1A6B3449C2F302127F
S2144005B00B68D3400B607047314B5B6913F0800F7C
S2144005C014BF4FF400424FF4FA422C4B1A60E4E753
S2144005D0294B1B6A13F0807F03D02A4A274B1A60A8
S2144005E0DBE7294A254B1A60234B1B6A03F070034E
S2144005F0102B05D0202BD0D1224A204B1A60CCE7B6
S214400600224A1E4B1A60C8E71B4B1B6A13F0807FBA
S21440061016D01C4A194B1A60174B1B6B03F003038A
S214400620022BBAD1144A916A926A1448C1F30A411D
S214400630036801FB0333D2B2B3FBF2F30360ACE7CB
S214400640114A0E4B1A600C4B1B6A03F07003102BBA
S21440065005D0202BE0D10B4A084B1A60DCE70B4A4A
S214400660064B1A60D8E7054A13680949A1FB0313ED
S2144006705B081360704700BF00060E400C00402029
S21440068010180E40001BB70000093D0000127A000B
S214400690ABAAAAAA124B984211D9124B984213D928
S2144006A0114B984214D9114B984215D9104B984289
S2144006B094BF4FF004220F4A0F4B1A6070474FF01A
S2144006C080620D4B1A6070470C4A0B4B1A6070479D
S2144006D00B4A094B1A6070470A4A074B1A60704724
S2144006E0FF2C3101FF596202FF869303FFB3C40417
S2144006F0FFE0F50500050004000C0E400001000474
S214400700000200040003000470B582B00E4B984708
S2144007104FF400420D4B5A600A200D4B98470D4D42
S2144007200024009423462246102128460A4EB0470D
S21440073022460B212846094B984701220B21284682
S214400740074B984702B070BDAD01400050180E40B0
S21440075069044000000E0E40650240002F02400033
S2144007601D0240002DE9F84F294B9847294B03F5C9
S2144007704A77DFF8B8B0284E264B1C1F274B1D1F64
S2144007804FF0100A08E03320254B984721E03320ED
S214400790234B9847BC42EFD051465846214B98478A
S2144007A054F8040F0028EED0C317A0FB060106FB42
S2144007B0031141F22C72002341F22B784FF00009CE
S2144007C010EB080041EB0901DFF86480C047144B8A
S2144007D0984751465846144B984755F8040F0028FA
S2144007E0D5D0C317A0FB060106FB031141F22C72BD
S2144007F0002341F22B784FF0000910EB080041EB44
S2144008000901DFF82C80C047054B9847C2E700BF78
S214400810090740003C03402000A3E111100040209F
S21440082001004020270240002B024000000E0E40F0
S2144008303508400053B94AB9002908BF00281CBFF4
S2144008404FF0FF314FF0FF3000F07AB9ADF1080CB1
S2144008506DE904CE00F006F8DDF804E0DDE9022399
S21440086004B070472DE9F0478C460D460446089E76
S214400870002B51D18A4217466DD9B2FA82FEBEF19C
S214400880000F0BD0CEF1200C01FA0EF520FA0CFC2E
S21440089002FA0EF74CEA050C00FA0EF44FEA174A35
S2144008A0250CBCFBFAF81FFA87F90AFB18CC45EA78
S2144008B00C4508FB09F3AB420AD9ED1908F1FF32A3
S2144008C080F02381AB4240F22081A8F102083D44EB
S2144008D0ED1AA4B2B5FBFAF00AFB105544EA0544FB
S2144008E000FB09F9A14509D9E41900F1FF3380F06E
S2144008F00A81A14540F2078102383C44A4EB090432
S21440090040EA08400021002E61D024FA0EF400236D
S21440091034607360BDE8F0878B4207D9002E54D010
S214400920002186E821000846BDE8F087B3FA83F147
S214400930002940F08E80AB4202D3824200F2FA8019
S214400940841A65EB03050120AC46002E3FD086E8AE
S2144009501010BDE8F08712B90127B7FBF2F7B7FAD7
S21440096087FEBEF1000F34D1EB1B3A0C1FFA87FC12
S2144009700121B3FBF2F8250C02FB183345EA034588
S2144009800CFB08F3AB4207D9ED1908F1FF3002D251
S214400990AB4200F2D1808046ED1AA3B2B5FBF2F02E
S2144009A002FB105543EA05440CFB00FCA44507D95E
S2144009B0E41900F1FF3302D2A44500F2B88018468D
S2144009C0A4EB0C0440EA08409DE731463046BDE8BB
S2144009D0F087CEF1200405FA0EF307FA0EF720FA58
S2144009E004F83A0C25FA04F448EA0308B4FBF2F19A
S2144009F04FEA184502FB11441FFA87FC45EA0445B6
S214400A0001FB0CF3AB4200FA0EF409D9ED1901F1E3
S214400A10FF3080F08A80AB4240F2878002393D4406
S214400A20EB1A1FFA88F5B3FBF2F002FB103345EAE7
S214400A30034500FB0CF3AB4207D9ED1900F1FF3834
S214400A406FD2AB426DD902383D44EB1A40EA0141C1
S214400A508FE7C1F1200722FA07F88B4005FA01F428
S214400A6048EA030320FA07FE4FEA134CFD404EEADD
S214400A70040EB5FBFCF94FEA1E440CFB19551FFA51
S214400A8083F844EA054509FB08F4AC4202FA01F251
S214400A9000FA01FA08D9ED1809F1FF3043D2AC420A
S214400AA041D9A9F102091D442D1B1FFA8EFEB5FB44
S214400AB0FCF00CFB10554EEA054400FB08F8A04538
S214400AC007D9E41800F1FF3529D2A04527D90238C6
S214400AD01C4440EA0940A4EB0804A0FB02894C45AC
S214400AE0C6464D4615D312D056B1BAEB0E0364EB4C
S214400AF0050404FA07F7CB401F43CC4037607460C8
S214400B000021BDE8F0871846F8E69046E0E6C24584
S214400B10EAD2B8EB020E69EB03050138E4E7284653
S214400B20D7E7404691E78146BEE7014678E7023878
S214400B303C4445E7084608E7A8F102083D442BE751
S214400B40704700BF70B50F4E0F4D761BB61018BFDE
S214400B50002405D0013455F8043B9847A642F9D105
S214400B600A4E0B4D761B00F0A7F8B61018BF0024AF
S214400B7006D0013455F8043B9847A642F9D170BDDB
S214400B8070BD00BFC40C4000C40C4000CC0C4000FC
S214400B90C40C4000024B13B1024800F005B8704741
S214400BA000000000B50B4000002301461A461846D8
S214400BB000F01EB838B50A4C0A4D641BA4100AD083
S214400BC004F18043013B05EB8305013C55F80439AD
S214400BD09847002CF9D1BDE8384000F077B800BF00
S214400BE0DC0C4000D80C4000704700BF704700BF88
S214400BF02DE9F8432C4D0646286898460F46914600
S214400C00FFF7F2FF294B1C68D4F84831002B3ED042
S214400C105A681F2A1CDC02F1010E76B103EB8201F2
S214400C200124C1F88890D3F8880194402043022ECE
S214400C30C3F88801C1F8088123D00232C3F804E023
S214400C40286843F82270FFF7D1FF0020BDE8F883FC
S214400C50174B0BB34FF4C870AFF300800346D8B1C0
S214400C60D4F848210260002141600A46C4F8480191
S214400C704FF0010EC0F88811C0F88C11002EDCD061
S214400C80CCE7D3F88C110C43C3F88C41D5E704F578
S214400C90A673C4F84831BBE72868FFF7A7FF4FF0B4
S214400CA0FF30BDE8F88300BF900A4020B40C4000F7
S214400CB00000000068064020F8B500BFF8BC08BC3D
S214400CC09E467047950B400065014000F8B500BF52
S210400CD0F8BC08BC9E467047410140003E
S20C400CDC88FBFF7F01000000C9
S214400CE4BFF35F8F0138FBD17047010000093D0018
S214400CF47D0000007D000000FA0000007D0000003A
S214400D047D0000007D0000007D000000FA00000029
S214400D147D0000007D0000007D0000007D00000096
S214400D24FA0000007D0000007D0000007D00000009
S214400D347D000000770100007D0000007D0000007B
S214400D447D000000FA0000007D0000007D000000E9
S214400D547D0000007D000000FA0000007D000000D9
S214400D647D0000007D0000007D000000FA000000C9
S214400D747D0000007D0000007D0000007D00000036
S214400D84770100007D0000007D0000007D0000002B
S214400D94FA0000007D0000007D0000007D00000099
S214400DA47D000000FA0000007D0000007D00000089
S214400DB47D0000007D000000FA0000007D00000079
S214400DC47D0000007D0000007D0000007D000000E6
S214400DD4FA0000007D0000007D0000007D00000059
S214400DE4FA0000007D0000007D000000FA000000CC
S214400DF47D000000FA0000007D0000007D00000039
S214400E047D000000FA0000007D0000007D00000028
S214400E147D0000007D00000077010000770100009F
S214400E24FA0000007D0000007D0000007D00000008
S214400E34FA0000007D0000007D0000007D000000F8
S214400E447D000000FA0000007D0000007D000000E8
S214400E547D0000007D000000770100007D0000005A
S214400E647D0000007D000000FA0000007D000000C8
S214400E747D0000007D0000007D000000FA000000B8
S214400E847D0000007D0000007D0000007D00000025
S214400E94FA0000007D0000007D0000007D00000098
S214400EA47D000000770100007D0000007D0000000A
S214400EB47D000000FA0000007D0000007D00000078
S214400EC47D0000007D000000FA0000007D00000068
S214400ED47D0000007D0000007D000000FA00000058
S214400EE47D0000007D0000007D0000007D000000C5
S214400EF47D000000FA0000007D0000007D00000038
S214400F047D000000FA0000007D0000007D00000027
S214400F14FA0000007D000000FA0000007D0000009A
S214400F247D0000007D000000FA0000007D00000007
S214400F347D0000007D0000007D0000007701000079
S214400F4477010000FA0000007D00000077010000F1
S214400F54FA0000007D000000770100007D000000DC
S214400F647D0000007D0000007D0000007D00000044
S214400F747D0000007D0000007D0000007701000039
S214400F84FA0000007D00000077010000FA0000002F
S214400F947D000000770100007D0000007D00000019
S214400FA47D0000007D0000007D000000F40100008C
S214400FB4FA0000007D00000077010000FA000000FF
S214400FC47D000000770100007D0000007D000000E9
S214400FD47D0000007D0000007D0000007D000000D4
S214400FE47D0000007D00000077010000FA0000004C
S214400FF47D00000077010000FA0000007D0000003C
S214401004770100007D0000007D0000007D000000A8
S2144010147D0000007D000000F40100004A0100004D
S21440102488010000B8010000B8010000000000007C
S214401034B8010000EE0100000B0200000B020000A5
S214401044000000000B0200004B020000EE0100000E
S214401054EE01000000000000B80100008801000016
S214401064B8010000000000004A01000088010000AA
S214401074B8010000B801000000000000B8010000FC
S214401084EE0100000B0200000B020000000000000E
S2144010940B0200004B020000EE010000EE010000CF
S2144010A400000000B801000088010000B8010000FC
S2144010B4000000004A01000088010000B80100005A
S2144010C4B801000000000000B80100000B02000058
S2144010D44B0200004B020000000000004B020000E0
S2144010E493020000BA020000BA02000000000000AA
S2144010F4930200004B02000093020000B801000077
S21440110400000000B8010000EE0100000B020000E1
S2144011140B020000000000004B0200009302000097
S214401124B801000000000000B80100000B020000F7
S214401134EE010000EE010000000000000B0200007B
S214401144B8010000EE01000000000000B8010000F5
S214401154B8010000B8010000EE0100000B020000D8
S2144011640B020000000000000B0200004B020000CF
S214401174EE010000EE01000000000000B80100008F
S21440118488010000B8010000000000004A01000089
S21440119488010000B8010000B8010000000000000B
S2144011A4B8010000EE0100000B0200000B02000034
S2144011B4000000000B0200004B020000EE0100009D
S2144011C4EE01000000000000B801000088010000A5
S2144011D4B8010000000000004A0100008801000039
S2144011E4B8010000B801000000000000B80100008B
S2144011F40B0200004B0200004B02000000000000FF
S2144012044B02000093020000BA020000BA0200003B
S21440121400000000930200004B020000930200000E
S214401224B801000000000000B8010000EE01000014
S2144012340B0200000B020000000000004B020000FE
S21440124493020000B801000000000000B80100004E
S2144012540B020000EE010000EE010000000000005A
S2144012640B020000B8010000EE0100000000000080
S214401274930200000000000000000000BA020000D4
S21440128400000000000000009302000093020000EB
S214401294000000001003000000000000930200005D
S2144012A44B02000000000000000000004B0200005B
S2144012B400000000000000000B02000000000000D8
S2144012C400000000EE0100000B02000000000000D9
S2144012D4EE01000000000000B80100009302000088
S2144012E40000000000000000BA02000000000000F9
S2144012F4000000009302000093020000000000007B
S2144013041003000000000000930200004B0200009F
S21440131400000000000000004B0200000000000037
S214401324000000000B020000000000000000000067
S214401334EE0100000B02000000000000EE01000079
S21440134400000000B80100000000000054094020DE
S214401354BC094020240A4020000000000000000091
S2144013640000000000000000000000000000000034
S2144013740000000000000000000000000000000024
S2144013840000000000000000000000000000000014
S2144013940000000000000000000000000000000004
S2144013A400000000000000000000000000000000F4
S2144013B400000000000000000000000000000000E4
S2144013C400000000000000000000000000000000D4
S2144013D400000000000000000000000000000000C4
S2144013E400000000000000000000000000000000B4
S2144013F401000000000000000E33CDAB34126DE651
S214401404ECDE05000B0000000000000000000000B9
S2144014140000000000000000000000000000000083
S2144014240000000000000000000000000000000073
S2144014340000000000000000000000000000000063
S2144014440000000000000000000000000000000053
S208401774200B4020A1
S8044004C1F6
