S00E000053414D4537302E7372656389
S214400000B82E4020390C4000E90C4000E90C400076
S214400010E90C4000E90C4000E90C400000000000FC
S214400020000000000000000000000000E90C400056
S214400030E90C400000000000E90C4000E90C4000DC
S214400040E90C4000E90C4000E90C4000E90C400097
S214400050E90C4000E90C4000E90C4000E90C400087
S214400060E90C400000000000F1074000090840008D
S21440007021084000E90C4000E90C4000E90C400033
S2144000803908400051084000E90C4000E90C4000A7
S214400090E90C4000E90C4000E90C4000E90C400047
S2144000A0E90C4000E90C4000E90C4000E90C400037
S2144000B0E90C4000E90C4000E90C4000E90C400027
S2144000C0E90C4000E90C4000E90C4000E90C400017
S2144000D000000000E90C400000000000E90C400071
S2144000E0E90C4000E90C4000E90C4000E90C4000F7
S2144000F0E90C4000E90C4000E90C4000E90C4000E7
S214400100E90C4000E90C4000E90C4000E90C4000D6
S214400110E90C400000000000000000000000000065
S214400120E90C4000E90C4000E90C4000E90C4000B6
S214400130E90C400000000000E90C4000E90C4000DB
S21440014010B5054C237833B9044B13B10448AFF3CC
S21440015000800123237010BD040E402000000000E4
S2144001600C3040000C4B43B10C480D4910B5AFF372
S21440017000800C48036823B910BD0A48036833B9A9
S2144001807047094B002BF7D0BDE810401847064B88
S214400190002BF5D0184700BF000000000C30400090
S2144001A0080E40200C3040000000000080B582B0B1
S2144001B000AF78607B68072B31D801A252F823F055
S2144001C01D024000E1014000E9014000F10140000D
S2144001D0F9014000010240000902400013024000BD
S2144001E00020114B98471AE001200F4B984716E025
S2144001F000200E4B984712E010200C4B98470EE01C
S21440020020200A4B98470AE03E210020084B98479A
S21440021005E03E210120064B984700E000BF00BFA6
S2144002200837BD4680BD00BF69094000D50940007B
S214400230450A400080B582B000AF78607B68072BE7
S21440024026D801A252F823F0690240006D02400011
S2144002506D0240007F0240007F0240007F02400067
S2144002607F0240007F024000012312E00B4B98477C
S2144002700346002B14BF01230023DBB209E0084BE2
S21440028098470346002B14BF01230023DBB200E04F
S214400290002318460837BD4680BD00BFA109400070
S2144002A0BD0A400080B483B000AF78607B68072BFF
S2144002B025D801A252F823F0D9024000DF024000C0
S2144002C0E5024000EB024000EF024000F30240002F
S2144002D0F7024000FB0240004FF4FA4310E04FF4B0
S2144002E000430DE04FF400430AE0084B08E0084B9B
S2144002F006E0084B04E0074B02E0064B00E0002314
S21440030018460C37BD465DF8047B704700093D0033
S21440031000127A00001BB70080B582B000AF0346DB
S214400320FB7100BFFB791846054B9847034683F0A0
S2144003300103DBB2002BF5D100BF0837BD4680BDB8
S2144003403502400080B586B000AFF8607A603B600A
S2144003500B46FB727B68002B07D13B68002B04D111
S214400360FB684FF470021A6019E0FB7A18460E4B91
S214400370984702467B68B2FBF3F37B617B693A6839
S21440038002FB03F37B613B68013B1A04074B1340B7
S2144003907A68D2B2134343F47C52FB681A6000BFBB
S2144003A01837BD4680BD00BFA50240000000FF07CD
S2144003B080B582B000AF786039603B68002B08D1CA
S2144003C0094B9847094A7B681B6843F00053936281
S2144003D005E0064A7B681B6843F48033D36100BF60
S2144003E00837BD4680BD00BFD90A400000060E4013
S2144003F080B582B000AF78607B68002B03D1054B98
S2144004009847034602E0044B984703461846083789
S214400410BD4680BDF50A4000110B400080B582B055
S21440042000AF0346FB71FB79033B042B08D8FB79EE
S2144004301846064B9847FB791846054B984700E008
S21440044000BF00BF0837BD4680BD00BFAD014000BD
S2144004501903400080B582B000AF786000BF78686E
S214400460044B98470346002BF9D00023184608371C
S214400470BD4680BDF103400080B500AF0620054B69
S2144004809847024613469B0013449A001344184666
S21440049080BD00BFA502400080B500AF024B984724
S2144004A00346184680BD00BF7904400090B583B02F
S2144004B000AF1348134B98470620134B9847381DF8
S2144004C0192301220621114CA0473B1D0021184646
S2144004D00F4B984700200F4B984702200E4B9847EB
S2144004E000200E4B98470E4B98470E4B98470346B6
S2144004F01846044B984700BF0C37BD4690BD00BF1A
S21440050000A3E111590E40001D0440004503400081
S214400510B10340005504400069084000E50840002B
S214400520F10C40009904400080B485B000AFF860FC
S214400530B9607A607B68002B03D0FB68BA685A665D
S21440054002E0FB68BA681A6600BF1437BD465DF81D
S214400550047B704780B485B000AFF860B9607A60BD
S214400560FB68BA68C3F884207B685B004FF400429F
S214400570B2FBF3F3013BC3F30D02FB68C3F88C20D8
S21440058000BF1437BD465DF8047B704780B483B027
S21440059000AF786039607B683A681A6300BF0C37F2
S2144005A0BD465DF8047B704780B483B000AF78608A
S2144005B039607B683A685A6300BF0C37BD465DF8C1
S2144005C0047B704780B487B000AFF860B9607A604B
S2144005D0BB68B3F1405F03D0BB68B3F1605F03D143
S2144005E0FB689B6B7B6102E0FB68DB6B7B617A6937
S2144005F07B681340002B01D1002300E001231846FE
S2144006001C37BD465DF8047B7047000080B584B05B
S21440061000AFF860B9607A60B968F868194B9847D7
S2144006207B6803F001031A46B968F868164B98478A
S2144006307B6803F00A03002B03D0FB68BA681A6293
S21440064002E0FB68BA685A627B6803F00203002B3C
S21440065004D0FB68BA68C3F8802008E07B6803F0E3
S2144006600803002B03D0FB68BA68C3F88420FB68F5
S214400670BA685A61FB68BA681A6000BF1037BD4650
S21440068080BD00BFF10640002905400080B584B01B
S21440069000AFF860B9607A603B60B968F868124BA2
S2144006A09847BA69B968F868104B98473B68002B7A
S2144006B003D0FB68BA681A6502E0FB68BA685A65F8
S2144006C07B68002B03D0FB68BA681A6302E0FB68BD
S2144006D0BA685A63FB68BA681A61FB68BA681A60F7
S2144006E000BF1037BD4680BDF106400029054000DA
S2144006F080B483B000AF786039607B683A685A64EB
S21440070000BF0C37BD465DF8047B704780B483B0AD
S21440071000AF78607B68DB6C18460C37BD465DF8EA
S214400720047B704780B483B000AF78607B689B6C76
S21440073018460C37BD465DF8047B704780B584B0DC
S21440074000AF786039607868264B9847F8607868DC
S214400750254B98470246FB681340FB60FB68002B1E
S2144007603CD00023BB6034E0204ABB681B011344E6
S2144007701A683B689A4226D11C4ABB681B01134440
S21440078004331A68FB681340002B1CD0174ABB681A
S2144007901B0113440C331B681449BA6812010A44FF
S2144007A010681249BA6812010A44043212681146A7
S2144007B098470E4ABB681B01134404331B68DB434F
S2144007C0FA681340FB60BB680133BB60BB68062B0E
S2144007D003D8FB68002BC7D100E000BF00BF10372E
S2144007E0BD4680BD0D07400025074000200E402036
S2144007F080B500AF0A210248024B984700BF80BD33
S214400800000E0E403D07400080B500AF0B21024869
S214400810024B984700BF80BD00100E403D07400089
S21440082080B500AF0C210248024B984700BF80BD00
S21440083000120E403D07400080B500AF1021024830
S214400840024B984700BF80BD00140E403D07400055
S21440085080B500AF11210248024B984700BF80BDCB
S21440086000160E403D07400080B483B000AF78606D
S2144008707B68013B032B1AD801A252F823F000BF35
S21440088091084000970840009F084000A708400095
S21440089000237B600EE04FF480737B600AE04FF4E9
S2144008A040737B6006E04FF400737B6002E00023F9
S2144008B07B6000BF0A490A4B1B6B23F440727B687F
S2144008C013430B6300BF064B9B6E03F00803002BDD
S2144008D0F9D000BF0C37BD465DF8047B704700BFBB
S2144008E000060E4080B485B000AF78601D491D4BB1
S2144008F01B6B23F070027B6813430B634FF48053EB
S214400900FB6007E0FB68002B01D1012323E0FB6876
S214400910013BFB60134B9B6E03F00803002BF1D0AA
S214400920104A104B1B6B23F0030343F00203136380
S2144009304FF48053FB6007E0FB68002B01D1012396
S21440094009E0FB68013BFB60064B9B6E03F0080327
S214400950002BF1D0002318461437BD465DF8047BC3
S214400960704700BF00060E4080B483B000AF78608A
S2144009707B68012B05D10749064B9A68064B134303
S2144009808B60044B054A1A6000BF0C37BD465DF8C5
S214400990047B704710180E40000010A5080000A504
S2144009A080B400AF094B5B6903F08003002B07D08F
S2144009B0074B9B6E03F08003002B01D0012300E021
S2144009C000231846BD465DF8047B704710180E405D
S2144009D000060E4080B483B000AF78601549154BD2
S2144009E01A6A154B13430B6200BF124B9B6E03F4FF
S2144009F00033002BF9D00F490E4B1A6A0F4B1340A9
S214400A007A68134343F45C130B6200BF094B9B6E3A
S214400A1003F40033002BF9D00649064B1A6A084BFC
S214400A20134043F45C130B6200BF0C37BD465DF8C1
S214400A30047B704700060E40080037008FFFC8FF53
S214400A40FFFFC8FE80B483B000AF786039607B6833
S214400A50002B08D01349134B1B6A134A1A40134BFA
S214400A6013430B6218E00F490E4B1A6A104B1340A3
S214400A703A68120292B21A430E4B13430B6200BFFF
S214400A80084B9B6E03F00103002BF9D00549054B3C
S214400A901A6A094B13430B6200BF0C37BD465DF81C
S214400AA0047B704700060E40FCFFC8FE020037017C
S214400AB0FCFFC8FF010037000000370180B400AFDC
S214400AC0044B9B6E03F480331846BD465DF8047BAA
S214400AD0704700BF00060E4080B400AF044B4FF096
S214400AE000529A6200BFBD465DF8047B704700BF67
S214400AF000060E4080B400AF044B9B6E03F002032A
S214400B001846BD465DF8047B704700BF00060E40A1
S214400B1080B400AF044B9B6E03F040031846BD46BE
S214400B205DF8047B704700BF00060E4080B483B07B
S214400B3000AF78607B683F2B01D901232FE07B68AC
S214400B401F2B13D8194B9A6901217B6801FA03F3CE
S214400B501A4001217B6801FA03F39A421ED0134AD9
S214400B6001217B6801FA03F3136117E07B68203BA1
S214400B707B600E4BD3F8082101217B6801FA03F312
S214400B801A4001217B6801FA03F39A4206D0074ACD
S214400B9001217B6801FA03F3C2F8003100231846AE
S214400BA00C37BD465DF8047B704700BF00060E401C
S214400BB080B483B000AFEFF310837B607B68002B7C
S214400BC00CBF01230023DBB23B6072B6BFF35F8FDE
S214400BD0044B00221A703B6818460C37BD465DF839
S214400BE0047B70470A00402080B483B000AF786032
S214400BF07B68002B14BF01230023DBB218460C375A
S214400C00BD465DF8047B704780B582B000AF786023
S214400C107868074B98470346002B05D0054B0122C2
S214400C201A70BFF35F8F62B600BF0837BD4680BDFF
S214400C30E90B40000A00402080B584B000AF1E4B50
S214400C40FB601E4BBB60FA68BB689A420CD007E05C
S214400C50BB681A1DBA60FA68111DF96012681A60FE
S214400C60BB68174A9342F3D3164BBB6004E0BB689D
S214400C701A1DBA6000221A60BB68134A9342F6D324
S214400C80124BFB60124AFB6823F07F039360114BC4
S214400C9098477860104A104B1B6843F47003136003
S214400CA0BFF34F8FBFF36F8F78680C4B98470C4B52
S214400CB098470C4B9847FEE70C3040000000402019
S214400CC0040E4020040E4020B40E40200000400099
S214400CD000ED00E0B10B400088ED00E0090C40005C
S214400CE06D2E40004910400080B400AFFEE7000083
S214400CF080B400AF524B1B6B03F00303012B14D0A0
S214400D00012B02D3022B38D07AE04E4B5B6903F0BE
S214400D108003002B04D04C4B4FF400421A606FE027
S214400D20494B4FF4FA421A606AE0454B1B6A03F09F
S214400D308073002B03D0444B444A1A6060E0424B19
S214400D40434A1A603E4B1B6A03F07003102B04D0D4
S214400D50202B08D0002B0ED00EE03B4B1B685B00D0
S214400D60394A136008E0384B1A6813465B00134450
S214400D70354A136000E000BF42E0314B1B6A03F087
S214400D808073002B03D0304B304A1A601CE02E4B49
S214400D902F4A1A602A4B1B6A03F07003102B04D0AC
S214400DA0202B08D0002B0ED00EE0274B1B685B0094
S214400DB0254A136008E0244B1A6813465B00134428
S214400DC0214A136000E000BF1D4B1B6B03F003037A
S214400DD0022B14D11A4B9B6A1B0CC3F30A03013334
S214400DE0194A126802FB03F3174A1360144B9B6AB6
S214400DF0DBB2154A1268B2FBF3F3134A136000BF26
S214400E000F4B1B6B03F07003702B08D10E4B1B6807
S214400E10104AA2FB03235B080B4A13600AE0084B08
S214400E201B6B1B0903F00703074A126822FA03F3F9
S214400E30054A136000BFBD465DF8047B704700BF9F
S214400E4000060E4010180E400C004020001BB70055
S214400E5000093D00ABAAAAAA80B483B000AF786070
S214400E607B68194A934204D8184B4FF080621A6048
S214400E7023E07B68164A934203D8144B154A1A60FF
S214400E801BE07B68144A934203D8104B134A1A60FF
S214400E9013E07B68124A934203D80C4B114A1A60FF
S214400EA00BE07B68104A934204D8084B4FF004226C
S214400EB01A6002E0054B0D4A1A6000BF0C37BD466B
S214400EC05DF8047B704700BFFF2C3101000C0E40DC
S214400ED0FF59620200010004FF86930300020004EB
S214400EE0FFB3C40400030004FFE0F505000500045A
S214400EF080B483B000AF78607B68072B25D801A20A
S214400F0052F823F0250F40002B0F4000310F4000D1
S214400F10370F40003B0F40003F0F4000430F40005C
S214400F20470F40004FF4FA4310E04FF400430DE003
S214400F304FF400430AE0084B08E0084B06E0084B35
S214400F4004E0074B02E0064B00E0002318460C374F
S214400F50BD465DF8047B704700093D0000127A00EC
S214400F60001BB70080B500AF0620054B98470246E9
S214400F7013469B0013449A001344184680BD00BF96
S214400F80F10E400080B500AF024B98470346184626
S214400F9080BD00BF650F400090B583B002AF224BC6
S214400FA09847224B4FF400425A600A20204B9847FD
S214400FB010201F4B98470023009300230022102147
S214400FC01C481D4CA0470023009300230022042108
S214400FD01848194CA04700230093002300224FF0E6
S214400FE080711448144CA04700230093002300222D
S214400FF008211048104CA047012216210F48104BDC
S2144010009847C82216210D480E4B984701221521B5
S2144010100A480B4B9847C82215210848094B984761
S21440102000BF0437BD4690BDAD04400050180E408A
S2144010302D0B4000000E0E408D06400000140E4062
S2144010400D064000550540002DE9F04FB5B000AF05
S214401050B14B98470023C7F8CC300023C7F8C830B8
S21440106000BF4FF480024FF02051AC48AC4B98473D
S2144010700346002BF5D10421AA48AB4B98474FF0C6
S2144010808071A848A94B98470821A648A74B98477F
S2144010900223C7F8C43077E2D7F8C830002B03D015
S2144010A00023C7F8C83076E2A14AD7F8C43052F8D1
S2144010B02320A04B1046984702460B469E4C4FF0C6
S2144010C000009E49A04703460C46C7E924344FF02B
S2144010D000034FF00004C7E92E343CE24FF4800290
S2144010E04FF020518D488E4B98470346002B40F0DA
S2144010F09B80D7F8CC30002B0CBF01230023DBB2FB
S214401100C7F8CC3010218748884B984787E08C4BEF
S2144011109847034619464FF000020B461446A00077
S214401120F867F86F40EA9370F8679B00BB67D7E9AB
S2144011301E345B1844EB020422017A677A6F42EA57
S21440114013727A671A013A67D7E91C12C91842EB3C
S21440115004020B461446DB1844EB040419462246A8
S21440116041F22B734FF00004CD1842EB040628469C
S2144011703146744C41F22C724FF00003A0470346B0
S2144011800C461846704B98474FF480024FF020515B
S2144011906248634B98470346002B08D1D7F8CC30BB
S2144011A0002B0CBF01230023DBB2C7F8CC30644BC6
S2144011B09847034619464FF000020B461446A000D7
S2144011C0F866F86E40EA9370F8669B00BB66D7E90F
S2144011D01A345B1844EB02044FEA041949EA1379BF
S2144011E04FEA031813EB080344EB0904DB1844EBFF
S2144011F004041946224641F22B734FF00004CD18E2
S21440120042EB0406284631464E4C41F22C724FF0D3
S2144012100003A04703460C4618464B4B9847D7F862
S214401220CC30002B7FF473AF4FF400124FF02051B8
S2144012303A483B4B98470346002B03D10123C7F857
S214401240C8309CE13A4AD7F8C43052F82330002BD5
S21440125040F084803D4AD7F8C43052F82330002B03
S21440126028D03A4AD7F8C43052F823301D464FEAC1
S214401270E576334B984703464FF0000403FB06F1F0
S21440128005FB04F20A44A5FB03015318194641F234
S2144012902B734FF00004C01841EB0401294C41F277
S2144012A02C724FF00003A04703460C461846264BC8
S2144012B0984716E0224B984703464FF000042449CF
S2144012C04FF000025D1844EB0206284631461D4C9E
S2144012D0204A4FF00003A04703460C4618461A4BD8
S2144012E098471A4AD7F8C43052F82320104B5B6808
S2144012F003FB02F20F4B1046984702460B46164C2D
S214401300D7E92E01A04703460C46C7E92E341021E4
S2144013100448064B98471EE1990F400000140E40C3
S214401320C5054000000E0E408D054000A905400052
S21440133010004020D5244000F52740000000F03F34
S214401340850F4000D52A400001004020A0004020E4
S214401350DF835A00E0835A003D224000B64C4FF0EF
S2144013600002B64BD7E92401A04703460C461A466E
S2144013702346B34CD7E92E01A04703460C46C7E99F
S2144013802E341021AF48B04B9847AB4CA8A3D3E9B6
S2144013900023D7E92401A04703460C4618462146B9
S2144013A0AA4C4FF000024FF08043A04703460C463D
S2144013B018462146A64C4FF000024FF00003A047C7
S2144013C00346002B39D19C4C99A3D3E90023D7E997
S2144013D02401A04703460C46184621469B4C4FF036
S2144013E000024FF08043A04703460C46194622466B
S2144013F0984B08461146984705460E46964B9847E2
S21440140003464FF0000403FB06F105FB04F20A44D2
S214401410A5FB030153181946904B4FF00004C01823
S21440142041EB04018E4C8F4A4FF00003A047034621
S2144014300C4618468C4B984716E0874B9847034611
S2144014404FF0000485494FF000025D1844EB020659
S21440145028463146824C834A4FF00003A047034655
S2144014600C461846804B9847102176487F4B984745
S214401470714C6FA3D3E90023D7E92401A047034664
S2144014800C4618462146714C4FF000024FF0804300
S214401490A04703460C46184621466D4C4FF00002C6
S2144014A04FF00003A0470346002B39D1624C60A39F
S2144014B0D3E90023D7E92401A04703460C46184643
S2144014C02146624C4FF000024FF08043A04703464F
S2144014D00C46194622465F4B084611469847054635
S2144014E00E465D4B984703464FF0000403FB06F15B
S2144014F005FB04F20A44A5FB030153181946574B53
S2144015004FF00004C01841EB0401554C554A4FF0CB
S2144015100003A04703460C461846534B984716E030
S2144015204D4B984703464FF000044C494FF000029D
S2144015305D1844EB020628463146494C494A4FF06E
S2144015400003A04703460C461846474B98471021D1
S2144015503C48464B9847464AD7F8C43052F8232072
S214401560444B5B6803FB02F2434B10469847434CA0
S214401570D7E92E23A0470346002B7FF4AFADD7F81C
S214401580C4300133C7F8C4303A4B1A68D7F8C43071
S2144015909A423FF781AD304B9847034619464FF085
S2144015A000020B461446DB1844EB04045B1844EB7D
S2144015B00204E0007866786E40EA53707866DB0096
S2144015C03B66D7E918345B1844EB0204E200FA6540
S2144015D0FA6D42EA5372FA65DB00BB65D7E916340A
S2144015E01946224641F22B734FF00004CD1842EBC9
S2144015F00406284631461A4C41F22C724FF000033E
S214401600A04703460C461846174B98474FF0807144
S2144016100C480D4B984704210A48144B984708211C
S2144016200848124B98470223C7F8B4309CE200BFE4
S2144016300000000080842E41A125400000408F40DD
S2144016403D224000000E0E408D054000F52740002C
S214401650712A4000052B4000850F4000DF835A006A
S214401660D52A4000E0835A0001004020A9054000EA
S214401670A000402010004020D5244000C12A400051
S214401680D7F8C830002B03D00023C7F8C83072E222
S2144016909B4AD7F8B43052F823209A4B10469847C6
S2144016A002460B46984C4FF000009849A047034628
S2144016B00C46C7E922344FF000034FF00004C7E958
S2144016C02A3438E24FF480024FF020519048914B34
S2144016D098470346002B40F09B80D7F8CC30002B31
S2144016E00CBF01230023DBB2C7F8CC3010218A4858
S2144016F08A4B984787E08A4B9847034619464FF0EF
S21440170000020B461446A0007865786D40EA937058
S21440171078659B003B65D7E914345B1844EB0204BC
S2144017202201FA64FA6C42EA1372FA641A01BA6445
S214401730D7E91212C91842EB04020B461446DB18CE
S21440174044EB04041946224641F22B734FF0000442
S214401750CD1842EB040628463146724C41F22C72B4
S2144017604FF00003A04703460C4618466E4B98477A
S2144017704FF480024FF020516548664B9847034629
S214401780002B08D1D7F8CC30002B0CBF0123002308
S214401790DBB2C7F8CC30624B9847034619464FF049
S2144017A000020B461446A0007864786C40EA9370BA
S2144017B078649B003B64D7E910345B1844EB020422
S2144017C04FEA041B4BEA137B4FEA031A13EB0A0358
S2144017D044EB0B04DB1844EB04041946224641F262
S2144017E02B734FF00004CD1842EB040628463146D2
S2144017F04C4C41F22C724FF00003A04703460C4677
S2144018001846494B9847D7F8CC30002B7FF473AF37
S2144018104FF400124FF020513D483E4B9847034648
S214401820002B03D10123C7F8C83098E1344AD7F8D3
S214401830B43052F82330002B40F080803B4AD7F833
S214401840B43052F82330002B28D0384AD7F8B4307A
S21440185052F823301D464FEAE576314B984703460B
S2144018604FF0000403FB06F105FB04F20A44A5FB17
S21440187003015318194641F22B734FF00004C01869
S21440188041EB0401274C41F22C724FF00003A04775
S21440189003460C461846244B984716E0204B98477C
S2144018A003464FF0000422494FF000025D1844EB17
S2144018B00206284631461B4C1E4A4FF00003A047FE
S2144018C003460C461846184B9847184AD7F8B43083
S2144018D052F823200A4B5B6803FB02F2094B104682
S2144018E0984702460B46144CD7E92A01A0470346C0
S2144018F00C46C7E92A3410210748084B98471AE196
S21440190030014020D5244000F52740000000F03F3D
S21440191000140E40C5054000000E0E40A9054000CC
S214401920850F4000D52A4000010040206404402036
S214401930DF835A00E0835A003D224000B64C4FF009
S2144019400002B64BD7E92201A04703460C461A468A
S2144019502346B34CD7E92A01A04703460C46C7E9BD
S2144019602A341021AF48B04B9847AB4CA8A3D3E9D4
S2144019700023D7E92201A04703460C4618462146D5
S214401980AA4C4FF000024FF08043A04703460C4657
S21440199018462146A64C4FF000024FF00003A047E1
S2144019A00346002B39D19C4C99A3D3E90023D7E9B1
S2144019B02201A04703460C46184621469B4C4FF052
S2144019C000024FF08043A04703460C461946224685
S2144019D0984B08461146984705460E46964B9847FC
S2144019E003464FF0000403FB06F105FB04F20A44ED
S2144019F0A5FB030153181946904B4FF00004C0183E
S214401A0041EB04018E4C8F4A4FF00003A04703463B
S214401A100C4618468C4B984716E0874B984703462B
S214401A204FF0000485494FF000025D1844EB020673
S214401A3028463146824C834A4FF00003A04703466F
S214401A400C461846804B9847102176487F4B98475F
S214401A50714C6FA3D3E90023D7E92201A047034680
S214401A600C4618462146714C4FF000024FF080431A
S214401A70A04703460C46184621466D4C4FF00002E0
S214401A804FF00003A0470346002B39D1624C60A3B9
S214401A90D3E90023D7E92201A04703460C4618465F
S214401AA02146624C4FF000024FF08043A047034669
S214401AB00C46194622465F4B08461146984705464F
S214401AC00E465D4B984703464FF0000403FB06F175
S214401AD005FB04F20A44A5FB030153181946574B6D
S214401AE04FF00004C01841EB0401554C554A4FF0E6
S214401AF00003A04703460C461846534B984716E04B
S214401B004D4B984703464FF000044C494FF00002B7
S214401B105D1844EB020628463146494C494A4FF088
S214401B200003A04703460C461846474B98471021EB
S214401B303C48464B9847464AD7F8B43052F823209C
S214401B40444B5B6803FB02F2434B10469847434CBA
S214401B50D7E92A23A0470346002B7FF4B3ADD7F836
S214401B60B4300133C7F8B4303A4B1A68D7F8B430BB
S214401B709A423FF785AD304B9847034619464FF09B
S214401B8000020B461446DB1844EB04045B1844EB97
S214401B900204E000F863F86B40EA5370F863DB0039
S214401BA0BB63D7E90E345B1844EB0204E2007A6369
S214401BB07A6B42EA53727A63DB003B63D7E90C34B4
S214401BC01946224641F22B734FF00004CD1842EBE3
S214401BD00406284631461A4C41F22C724FF0000358
S214401BE0A04703460C461846174B98474FF080715F
S214401BF00C48164B984704210A48144B984708212E
S214401C000848094B98470223C7F8A430A4E200BF0F
S214401C100000000080842E41A125400000408F40F7
S214401C203D224000000E0E408D054000F527400046
S214401C30712A4000052B4000850F4000DF835A0084
S214401C40D52A4000E0835A0001004020A905400004
S214401C506404402030014020D5244000C12A400082
S214401C60D7F8C830002B03D00023C7F8C8307AE234
S214401C709E4AD7F8A43052F823209D4B10469847EA
S214401C8002460B469B4C4FF000009B49A04703463C
S214401C900C46C7E920344FF000034FF00004C7E974
S214401CA0263440E24FF480024FF020519348944B44
S214401CB098470346002B40F0A080D7F8CC30002B46
S214401CC00CBF01230023DBB2C7F8CC3010218D486F
S214401CD08D4B98478CE08D4B9847034619464FF0FE
S214401CE000020B461446A000F862F86A40EA937079
S214401CF0F8629B00BB62D7E90A345B1844EB0204E7
S214401D0022017A627A6A42EA13727A621A013A6267
S214401D10D7E90812C91842EB04020B461446DB18F2
S214401D2044EB04041946224641F22B734FF000045C
S214401D30CD1842EB040628463146754C41F22C72CB
S214401D404FF00003A04703460C461846714B984791
S214401D504FF480024FF020516848694B984703463D
S214401D60002B08D1D7F8CC30002B0CBF0123002322
S214401D70DBB2C7F8CC30654B9847034619464FF060
S214401D8000020B461446A000F861F86940EA9370DA
S214401D90F8619B00BB61D7E906345B1844EB02044C
S214401DA022017A617A6942EA13727A611A013A61CB
S214401DB0D7E90412C91842EB04020B461446DB1856
S214401DC044EB04041946224641F22B734FF00004BC
S214401DD0CD1842EB0406284631464D4C41F22C7253
S214401DE04FF00003A04703460C461846494B984719
S214401DF0D7F8CC30002B7FF46EAF4FF400124FF084
S214401E0020513E483E4B98470346002B03D10123C2
S214401E10C7F8C8309BE1404AD7F8A43052F8233080
S214401E20002B40F083803D4AD7F8A43052F8233048
S214401E30002B28D0394AD7F8A43052F823301D4614
S214401E404FEAE576314B984703464FF0000403FBD4
S214401E5006F105FB04F20A44A5FB03015318194694
S214401E6041F22B734FF00004C01841EB0401284C9C
S214401E7041F22C724FF00003A04703460C4618462A
S214401E80244B984716E0214B984703464FF00004F2
S214401E9023494FF000025D1844EB020628463146BF
S214401EA01B4C204A4FF00003A04703460C461846FA
S214401EB0184B9847194AD7F8A43052F823200B4BB2
S214401EC05B6803FB02F20A4B1046984702460B46F5
S214401ED0154CD7E92601A04703460C46C7E92634E9
S214401EE010210848084B98471DE100BF980740203E
S214401EF0D5244000F52740000000F03F00140E4077
S214401F00C5054000000E0E40A9054000850F400064
S214401F10D52A40000100402010004020B80840204C
S214401F20DF835A00E0835A003D224000AE4C4FF01B
S214401F300002AE4BD7E92001A04703460C461A469E
S214401F402346AB4CD7E92601A04703460C46C7E9D3
S214401F5026341021A748A84B9847A34CA0A3D3E902
S214401F600023D7E92001A04703460C4618462146E1
S214401F70A24C4FF000024FF08043A04703460C4669
S214401F80184621469E4C4FF000024FF00003A047F3
S214401F900346002B39D1944C91A3D3E90023D7E9CB
S214401FA02001A04703460C4618462146934C4FF066
S214401FB000024FF08043A04703460C46194622468F
S214401FC0904B08461146984705460E468E4B984716
S214401FD003464FF0000403FB06F105FB04F20A44F7
S214401FE0A5FB030153181946884B4FF00004C01850
S214401FF041EB0401864C874A4FF00003A047034656
S2144020000C461846844B984716E07F4B9847034645
S2144020104FF000047D494FF000025D1844EB020685
S214402020284631467A4C7B4A4FF00003A047034689
S2144020300C461846784B984710216E48774B984781
S214402040694C67A3D3E90023D7E92001A04703469C
S2144020500C4618462146694C4FF000024FF080432C
S214402060A04703460C4618462146654C4FF00002F2
S2144020704FF00003A0470346002B39D15A4C58A3D3
S214402080D3E90023D7E92001A04703460C4618466B
S21440209021465A4C4FF000024FF08043A04703467B
S2144020A00C4619462246574B084611469847054661
S2144020B00E46554B984703464FF0000403FB06F187
S2144020C005FB04F20A44A5FB0301531819464F4B7F
S2144020D04FF00004C01841EB04014D4C4D4A4FF000
S2144020E00003A04703460C4618464B4B984716E05D
S2144020F0454B984703464FF0000444494FF00002D2
S2144021005D1844EB020628463146414C414A4FF0A2
S2144021100003A04703460C4618463F4B98471021FD
S21440212034483E4B98473E4AD7F8A43052F82320CE
S2144021303C4B5B6803FB02F23B4B104698473B4CDC
S214402140D7E92623A0470346002B7FF4ABADD7F84C
S214402150A4300133C7F8A430324B1A68D7F8A430FD
S2144021609A423FF77DAD284B9847034619464FF0B5
S21440217000020B461446DB1844EB04045B1844EBA1
S2144021800204E000F860F86840EA5370F860DB004C
S214402190BB60D7E902345B1844EB0204E2007A6085
S2144021A07A6842EA53727A60DB003B60D7E90034D3
S2144021B01946224641F22B734FF00004CD1842EBED
S2144021C0040628463146124C41F22C724FF000036A
S2144021D0A04703460C4618460F4B9847FEF74BBFA2
S2144021E00000000080842E41A125400000408F4022
S2144021F03D224000000E0E408D054000F527400071
S214402200712A4000052B4000850F4000DF835A00AE
S214402210D52A4000E0835A0001004020A90540002E
S214402220B808402098074020D5244000C12A4000E6
S21440223081F0004102E000BF83F0004330B54FEA32
S21440224041044FEA430594EA050F08BF90EA020F9F
S2144022501FBF54EA000C55EA020C7FEA645C7FEA32
S214402260655C00F0E2804FEA5454D4EB5555B8BF55
S2144022706D420CDD2C4480EA020281EA030382EAC6
S214402280000083EA010180EA020281EA0303362D58
S21440229088BF30BD11F0004F4FEA01314FF4801C2B
S2144022A04CEA113102D0404261EB410113F0004F3D
S2144022B04FEA03334CEA133302D0524263EB4303F4
S2144022C094EA050F00F0A780A4F10104D5F1200E92
S2144022D00DDB02FA0EFC22FA05F2801841F10001ED
S2144022E003FA0EF2801843FA05F359410EE0A5F1C1
S2144022F020050EF1200E012A03FA0EFC28BF4CF0F2
S214402300020C43FA05F3C01851EBE37101F00045A7
S21440231007D54FF0000EDCF1000C7EEB00006EEBB4
S2144023200101B1F5801F1BD3B1F5001F0CD349083E
S2144023305FEA30004FEA3C0C04F101044FEA445295
S21440234012F5800F80F09A80BCF1004F08BF5FEA1C
S214402350500C50F1000041EB045141EA050130BDFC
S2144023605FEA4C0C404141EB010111F4801FA4F19F
S2144023700104E9D191F0000F04BF01460020B1FAF4
S21440238081F308BF2033A3F10B03B3F120020CDA2C
S2144023900C3208DD02F1140CC2F10C0201FA0CF00A
S2144023A021FA02F10CE002F11402D8BFC2F1200C6F
S2144023B001FA02F120FA0CFCDCBF41EA0C01904025
S2144023C0E41AA2BF01EB0451294330BD6FEA04046E
S2144023D01F3C1CDA0C340EDC04F11404C4F1200259
S2144023E020FA04F001FA02F340EA030021FA04F36B
S2144023F045EA030130BDC4F10C04C4F1200220FAC2
S21440240002F001FA04F340EA0300294630BD21FAFF
S21440241004F0294630BD94F0000F83F4801306BFC5
S21440242081F480110134013D4EE77FEA645C18BFB9
S2144024307FEA655C29D094EA050F08BF90EA020F50
S21440244005D054EA000C04BF1946104630BD91EA48
S214402450030F1EBF0021002030BD5FEA545C05D14B
S2144024604000494128BF41F0004130BD14F580048A
S2144024703CBF01F5801130BD01F0004545F0FE41FE
S21440248041F470014FF0000030BD7FEA645C1ABF33
S214402490194610467FEA655C1CBF0B46024650EA6A
S2144024A0013406BF52EA033591EA030F41F4002196
S2144024B030BD00BF90F0000F04BF0021704730B51C
S2144024C04FF4806404F132044FF000054FF00001F1
S2144024D050E700BF90F0000F04BF0021704730B5B2
S2144024E04FF4806404F1320410F0004548BF404287
S2144024F04FF000013EE700BF42004FEAE2014FEADC
S21440250031014FEA02701FBF12F07F4393F07F4FB6
S21440251081F06051704792F0000F14BF93F07F4FE8
S214402520704730B54FF4607401F0004521F000412B
S21440253020E700BF50EA010208BF704730B54FF0B1
S21440254000050AE050EA010208BF704730B511F0B6
S214402550004502D5404261EB41014FF4806404F1EE
S21440256032045FEA915C3FF4DCAE4FF003025FEA70
S214402570DC0C18BF03325FEADC0C18BF033202EBF8
S214402580DC02C2F1200300FA03FC20FA02F001FA52
S21440259003FE40EA0E0021FA02F11444C1E600BFF1
S2144025A070B54FF0FF0C4CF4E06C1CEA11541DBFA4
S2144025B01CEA135594EA0C0F95EA0C0F00F0DEF86F
S2144025C02C4481EA030621EA4C5123EA4C5350EA54
S2144025D0013518BF52EA033541F4801143F48013A5
S2144025E038D0A0FB02CE4FF00005E1FB02E506F036
S2144025F00042E0FB03E54FF00006E1FB03569CF08B
S214402600000F18BF4EF0010EA4F1FF04B6F5007F90
S21440261064F5407404D25FEA4E0E6D4146EB060602
S21440262042EAC62141EA55514FEAC52040EA5E508B
S2144026304FEACE2EB4F1FD0C88BFBCF5E06F1ED835
S214402640BEF1004F08BF5FEA500E50F1000041EB6C
S214402650045170BD06F0004646EA010140EA020019
S21440266081EA0301B4EB5C04C2BFD4EB0C0541EA3B
S214402670045170BD41F480114FF0000E013C00F350
S214402680AB8014F1360FDEBF002001F0004170BD74
S214402690C4F10004203C35DA0C341BDC04F114048D
S2144026A0C4F1200500FA05F320FA04F001FA05F219
S2144026B040EA020001F0004221F0004110EBD370E6
S2144026C021FA04F642EB06015EEA430E08BF20EA12
S2144026D0D37070BDC4F10C04C4F1200500FA04F3B5
S2144026E020FA05F001FA04F240EA020001F0004147
S2144026F010EBD37041F100015EEA430E08BF20EABA
S214402700D37070BDC4F1200500FA05F24EEA020E01
S21440271020FA04F301FA05F243EA020321FA04F030
S21440272001F0004121FA04F220EA020000EBD370E7
S2144027305EEA430E08BF20EAD37070BD94F0000FE7
S2144027400FD101F00046400041EB010111F4801F1B
S21440275008BF013CF7D041EA060195F0000F18BFCC
S214402760704703F00046520043EB030313F4801F08
S21440277008BF013DF7D043EA0603704794EA0C0FC2
S2144027800CEA135518BF95EA0C0F0CD050EA4106D8
S21440279018BF52EA4306D1D181EA030101F0004155
S2144027A04FF0000070BD50EA410606BF104619467D
S2144027B052EA430619D094EA0C0F02D150EA013689
S2144027C013D195EA0C0F05D152EA03361CBF1046CA
S2144027D019460AD181EA030101F0004141F0FE4169
S2144027E041F470014FF0000070BD41F0FE4141F4ED
S2144027F0780170BD70B54FF0FF0C4CF4E06C1CEAED
S21440280011541DBF1CEA135594EA0C0F95EA0C0FA1
S21440281000F0A7F8A4EB050481EA030E52EA03355C
S2144028204FEA013100F088804FEA03334FF080557D
S21440283045EA131343EA12634FEA022245EA1115AA
S21440284045EA10654FEA00260EF000419D4208BF5B
S214402850964244F1FD0404F5407402D25B084FEA08
S2144028603202B61A65EB03055B084FEA32024FF4B4
S21440287080104FF4002CB6EB020E75EB030E22BF11
S214402880B61A754640EA0C005B084FEA3202B6EBD1
S214402890020E75EB030E22BFB61A754640EA5C0080
S2144028A05B084FEA3202B6EB020E75EB030E22BF10
S2144028B0B61A754640EA9C005B084FEA3202B6EB11
S2144028C0020E75EB030E22BFB61A754640EADC00D0
S2144028D055EA060E18D04FEA051545EA16754FEA32
S2144028E006164FEAC30343EA52734FEAC2025FEA50
S2144028F01C1CC0D111F4801F0BD141EA00014FF0DF
S21440290000004FF0004CB6E711F4801F04BF0143AF
S2144029100020B4F1FD0C88BFBCF5E06F3FF6AFAECB
S214402920B5EB030C04BFB6EB020C5FEA500C50F15B
S214402930000041EB045170BD0EF0004E4EEA1131DE
S21440294014EB5C04C2BFD4EB0C0541EA045170BDE5
S21440295041F480114FF0000E013C90E645EA060E29
S2144029608DE60CEA135594EA0C0F08BF95EA0C0F57
S2144029703FF43BAF94EA0C0F0AD150EA01347FF49F
S21440298034AF95EA0C0F7FF425AF104619462CE776
S21440299095EA0C0F06D152EA03353FF4FDAE1046D9
S2144029A0194622E750EA410618BF52EA43067FF42A
S2144029B0C5AE50EA41047FF40DAF52EA43057FF4BA
S2144029C0EBAE12E74FF0FF3C06E000BF4FF0010CC5
S2144029D002E000BF4FF0010C4DF804CD4FEA410C29
S2144029E07FEA6C5C4FEA430C18BF7FEA6C5C1BD0F6
S2144029F001B050EA410C0CBF52EA430C91EA030F77
S214402A0002BF90EA020F0020704710F1000F91EAD3
S214402A10030F58BF994208BF90422CBFD8176FEAA1
S214402A20E37040F0010070474FEA410C7FEA6C5C6F
S214402A3002D150EA013C07D14FEA430C7FEA6C5C76
S214402A40D6D152EA033CD3D05DF8040B704700BFA2
S214402A508446104662468C461946634600E000BFF0
S214402A6001B5FFF7B7FF002848BF10F1000F01BDC2
S214402A704DF808EDFFF7F4FF0CBF012000205DF88D
S214402A8008FB00BF4DF808EDFFF7EAFF34BF012012
S214402A9000205DF808FB00BF4DF808EDFFF7E0FFAB
S214402AA094BF012000205DF808FB00BF4DF808EDFC
S214402AB0FFF7CEFF94BF012000205DF808FB00BF63
S214402AC04DF808EDFFF7C4FF34BF012000205DF845
S214402AD008FB00BF53B94AB9002908BF00281CBFED
S214402AE04FF0FF314FF0FF3000F09EB9ADF1080CCB
S214402AF06DE904CE00F02AF8DDF804E0DDE90223B3
S214402B0004B07047D0B500220E4B06460F46FFF77E
S214402B1047FD00F08BF90446FFF7CCFC00220A4B39
S214402B20FFF73EFD02460B4630463946FFF784FB2C
S214402B3000F07CF92346002242EA0002104619467D
S214402B40D0BD00BF0000F03D0000F0412DE9F04749
S214402B508C460D460446089E002B51D18A421746A5
S214402B606DD9B2FA82FEBEF1000F0BD0CEF1200C2A
S214402B7001FA0EF520FA0CFC02FA0EF74CEA050CA8
S214402B8000FA0EF44FEA174A250CBCFBFAF81FFA77
S214402B9087F90AFB18CC45EA0C4508FB09F3AB421B
S214402BA00AD9ED1908F1FF3280F02381AB4240F29A
S214402BB02081A8F102083D44ED1AA4B2B5FBFAF014
S214402BC00AFB105544EA054400FB09F9A14509D91A
S214402BD0E41900F1FF3380F00A81A14540F20781F5
S214402BE002383C44A4EB090440EA08400021002E89
S214402BF061D024FA0EF4002334607360BDE8F08799
S214402C008B4207D9002E54D0002186E82100084682
S214402C10BDE8F087B3FA83F1002940F08E80AB42DE
S214402C2002D3824200F2FA80841A65EB0305012043
S214402C30AC46002E3FD086E81010BDE8F08712B9AB
S214402C400127B7FBF2F7B7FA87FEBEF1000F34D183
S214402C50EB1B3A0C1FFA87FC0121B3FBF2F8250C5C
S214402C6002FB183345EA03450CFB08F3AB4207D991
S214402C70ED1908F1FF3002D2AB4200F2D180804617
S214402C80ED1AA3B2B5FBF2F002FB105543EA054439
S214402C900CFB00FCA44507D9E41900F1FF3302D22F
S214402CA0A44500F2B8801846A4EB0C0440EA08405D
S214402CB09DE731463046BDE8F087CEF1200405FA60
S214402CC00EF307FA0EF720FA04F83A0C25FA04F445
S214402CD048EA0308B4FBF2F14FEA184502FB1144F8
S214402CE01FFA87FC45EA044501FB0CF3AB4200FAA9
S214402CF00EF409D9ED1901F1FF3080F08A80AB421D
S214402D0040F2878002393D44EB1A1FFA88F5B3FB40
S214402D10F2F002FB103345EA034500FB0CF3AB42EE
S214402D2007D9ED1900F1FF386FD2AB426DD90238A2
S214402D303D44EB1A40EA01418FE7C1F1200722FAF1
S214402D4007F88B4005FA01F448EA030320FA07FE29
S214402D504FEA134CFD404EEA040EB5FBFCF94FEA31
S214402D601E440CFB19551FFA83F844EA054509FB37
S214402D7008F4AC4202FA01F200FA01FA08D9ED185A
S214402D8009F1FF3043D2AC4241D9A9F102091D44B2
S214402D902D1B1FFA8EFEB5FBFCF00CFB10554EEAC1
S214402DA0054400FB08F8A04507D9E41800F1FF35B4
S214402DB029D2A04527D902381C4440EA0940A4EB52
S214402DC00804A0FB02894C45C6464D4615D312D092
S214402DD056B1BAEB0E0364EB050404FA07F7CB4092
S214402DE01F43CC40376074600021BDE8F08718462A
S214402DF0F8E69046E0E6C245EAD2B8EB020E69EB4A
S214402E0003050138E4E72846D7E7404691E7814680
S214402E10BEE7014678E702383C4445E7084608E7FF
S214402E20A8F102083D442BE7704700BF4A0011D284
S214402E3012F5001211D20DD56FF47873B3EB6252CF
S214402E400ED44FEAC12343F0004343EA505323FADB
S214402E5002F070474FF00000704750EA013002D150
S214402E604FF0FF3070474FF00000704770B50F4E80
S214402E700F4D761BB61018BF002405D0013455F808
S214402E80043B9847A642F9D10A4E0B4D761B00F0FC
S214402E90A7F8B61018BF002406D0013455F8043BF6
S214402EA09847A642F9D170BD70BD00BFEC2F4000D8
S214402EB0EC2F4000F42F4000EC2F4000024B13B1A3
S214402EC0024800F005B8704700000000DD2E4000C4
S214402ED0002301461A46184600F01EB838B50A4C7C
S214402EE00A4D641BA4100AD004F18043013B05EB55
S214402EF08305013C55F804399847002CF9D1BDE8C4
S214402F00384000F077B800BF043040000030400042
S214402F10704700BF704700BF2DE9F8432C4D06466A
S214402F20286898460F469146FFF7F2FF294B1C68E3
S214402F30D4F84831002B3ED05A681F2A1CDC02F1D8
S214402F40010E76B103EB82010124C1F88890D3F8D4
S214402F50880194402043022EC3F88801C1F80881B6
S214402F6023D00232C3F804E0286843F82270FFF703
S214402F70D1FF0020BDE8F883174B0BB34FF4C87061
S214402F80AFF300800346D8B1D4F848210260002150
S214402F9041600A46C4F848014FF0010EC0F8881157
S214402FA0C0F88C11002EDCD0CCE7D3F88C110C4343
S214402FB0C3F88C41D5E704F5A673C4F84831BBE79F
S214402FC02868FFF7A7FF4FF0FF30BDE8F88300BF43
S214402FD0000E4020DC2F400000000000D8094020B2
S214402FE0F8B500BFF8BC08BC9E467047BD2E4000F2
S214402FF065014000F8B500BFF8BC08BC9E46704767
S2084030004101400005
S20C40300448FBFF7F01000000BD
S21440300CBFF35F8F0138FBD17047010000093D00CC
S21440301C23000000190000004A0100005D0100007A
S21440302C880100000B020000260100004A01000047
S21440303C5D01000088010000B8010000EE010000B0
S21440304CBA020000B8010000EE0100000B020000BE
S21440305C4B020000930200004A0100005D01000094
S21440306C880100000B0200004B0200009302000097
S21440307CBA02000088010000000000008801000031
S21440308C930200004B0200008801000093020000EF
S21440309C4B02000088010000930200004B02000027
S2144030AC23000000190000000C0000000400000083
S2144030BC08000000280000000C000000040000007F
S2144030CC300000000C000000040000000800000067
S2144030DC280000000C000000040000001000000057
S2144030EC10000000100000000C000000040000005F
S2144030FC08000000280000000C000000040000003F
S21440310C300000000C00000001000000040000002D
S21440311C100000000C00000004000000100000002E
S21440312C0C0000000400000010000000200000000E
S21440313CCB000000010000004A010000880100009E
S21440314CB8010000B801000000000000B801000003
S21440315CEE0100000B0200000B0200000000000015
S21440316C0B0200004B020000EE010000EE010000D6
S21440317C00000000B801000088010000B801000003
S21440318C000000004A01000088010000B801000061
S21440319CB801000000000000B8010000EE0100007D
S2144031AC0B0200000B020000000000000B020000A7
S2144031BC4B020000EE010000EE0100000000000093
S2144031CCB801000088010000B801000000000000B3
S2144031DC4A01000088010000B8010000B801000058
S2144031EC00000000B80100000B0200004B0200007B
S2144031FC4B020000000000004B020000930200004F
S21440320CBA020000BA020000000000009302000060
S21440321C4B02000093020000B801000000000000C2
S21440322CB8010000EE0100000B0200000B0200008B
S21440323C000000004B02000093020000B8010000A2
S21440324C00000000B80100000B020000EE01000078
S21440325CEE010000000000000B020000B801000068
S21440326CEE01000000000000B8010000B8010000AC
S21440327CB8010000EE0100000B0200000B0200003B
S21440328C000000000B0200004B020000EE010000A4
S21440329CEE01000000000000B801000088010000AC
S2144032ACB8010000000000004A0100008801000040
S2144032BCB8010000B801000000000000B801000092
S2144032CCEE0100000B0200000B02000000000000A4
S2144032DC0B0200004B020000EE010000EE01000065
S2144032EC00000000B801000088010000B801000092
S2144032FC000000004A01000088010000B8010000F0
S21440330CB801000000000000B80100000B020000ED
S21440331C4B0200004B020000000000004B02000075
S21440332C93020000BA020000BA020000000000003F
S21440333C930200004B02000093020000B80100000C
S21440334C00000000B8010000EE0100000B02000077
S21440335C0B020000000000004B020000930200002D
S21440336CB801000000000000B80100000B0200008D
S21440337CEE010000EE010000000000000B02000011
S21440338CB8010000EE0100000000000093020000AF
S21440339C0000000000000000BA0200000000000020
S2144033AC00000000930200009302000000000000A2
S2144033BC1003000000000000930200004B020000C7
S2144033CC00000000000000004B020000000000005F
S2144033DC000000000B02000000000000000000008F
S2144033ECEE0100000B02000000000000EE010000A1
S2144033FC00000000B801000093020000000000002E
S21440340C00000000BA0200000000000000000000AF
S21440341C930200009302000000000000100300001E
S21440342C00000000930200004B0200000000000069
S21440343C000000004B0200000000000000000000EE
S21440344C0B0200000000000000000000EE0100002F
S21440345C0B02000000000000EE010000000000001F
S21440346CB8010000CB000000010000007D00000009
S21440347C7D000000FA0000007D0000007D0000008A
S21440348C7D0000007D000000FA0000007D0000007A
S21440349C7D0000007D0000007D000000FA0000006A
S2144034AC7D0000007D0000007D0000007D000000D7
S2144034BC770100007D0000007D0000007D000000CC
S2144034CCFA0000007D0000007D0000007D0000003A
S2144034DC7D000000FA0000007D0000007D0000002A
S2144034EC7D0000007D000000FA0000007D0000001A
S2144034FC7D0000007D0000007D000000770100008C
S21440350C7D0000007D0000007D000000FA000000F9
S21440351C7D0000007D0000007D0000007D00000066
S21440352CFA0000007D0000007D0000007D000000D9
S21440353C7D000000FA0000007D0000007D000000C9
S21440354C7D0000007D0000007D000000FA000000B9
S21440355C7D0000007D0000007D000000FA000000A9
S21440356C7D0000007D000000FA0000007D00000099
S21440357CFA0000007D0000007D0000007D00000089
S21440358CFA0000007D0000007D0000007D00000079
S21440359C7D0000007701000077010000FA00000073
S2144035AC7D0000007D0000007D000000FA00000059
S2144035BC7D0000007D0000007D0000007D000000C6
S2144035CCFA0000007D0000007D0000007D00000039
S2144035DC7D000000770100007D0000007D000000AB
S2144035EC7D000000FA0000007D0000007D00000019
S2144035FC7D0000007D000000FA0000007D00000009
S21440360C7D0000007D0000007D000000FA000000F8
S21440361C7D0000007D0000007D0000007D00000065
S21440362C770100007D0000007D0000007D0000005A
S21440363CFA0000007D0000007D0000007D000000C8
S21440364C7D000000FA0000007D0000007D000000B8
S21440365C7D0000007D000000FA0000007D000000A8
S21440366C7D0000007D0000007D0000007D00000015
S21440367CFA0000007D0000007D0000007D00000088
S21440368CFA0000007D0000007D000000FA000000FB
S21440369C7D000000FA0000007D0000007D00000068
S2144036AC7D000000FA0000007D0000007D00000058
S2144036BC7D0000007D0000007701000077010000CF
S2144036CCFA0000007D00000077010000FA000000C0
S2144036DC7D000000770100007D0000007D000000AA
S2144036EC7D0000007D0000007D0000007D00000095
S2144036FC7D0000007D00000077010000FA0000000D
S21440370C7D00000077010000FA0000007D000000FC
S21440371C770100007D0000007D0000007D00000069
S21440372C7D0000007D000000F4010000FA0000005F
S21440373C7D00000077010000FA0000007D000000CC
S21440374C770100007D0000007D0000007D00000039
S21440375C7D0000007D0000007D0000007D00000024
S21440376C7D00000077010000FA0000007D0000009C
S21440377C77010000FA0000007D0000007701000091
S21440378C7D0000007D0000007D0000007D000000F4
S21440379C7D000000F40100001C0000001900000031
S2144037AC4A010000000000004A0100009F01000092
S2144037BC5D0100004A0100009F010000000000006F
S2144037CC9F010000EE010000B80100009F010000C0
S2144037DCB801000000000000B80100000B02000019
S2144037ECEE010000B80100009F0100005D010000E2
S2144037FC9F0100004A010000000000004A01000042
S21440380C9F0100005D0100004A0100009F0100007E
S21440381C000000009F010000EE010000B80100000F
S21440382C9F010000B801000000000000B801000035
S21440383C0B020000EE010000B80100009F010000E2
S21440384C5D0100009F0100009F0100000000000089
S21440385C9F0100005D0100004A01000000000000CE
S21440386C4A0100004A0100005D0100000000000013
S21440387C5D0100004A010000260100000000000027
S21440388C2601000000000000260100000000000099
S21440389C260100005D0100004A01000026010000E0
S2144038AC0000000026010000B80100009F01000047
S2144038BC5D0100009F0100001C0000001900000084
S2144038CC1000000001000000180000000800000076
S2144038DC0800000008000000100000000100000076
S2144038EC1800000008000000080000000800000057
S2144038FC1000000001000000180000000800000046
S21440390C0800000008000000100000001000000036
S21440391C200000001000000001000000180000000D
S21440392C080000000800000008000000100000001E
S21440393C010000001800000008000000080000000D
S21440394C08000000100000000100000018000000F5
S21440395C08000000080000000800000010000000EE
S21440396C10000000200000000800000001000000CD
S21440397C10000000080000000800000001000000D5
S21440398C08000000010000001000000008000000C5
S21440399C10000000080000000800000001000000B5
S2144039AC080000000100000010000000100000009D
S2144039BC0C0000000400000008000000010000009D
S2144039CC0800000004000000040000000400000092
S2144039DC200000000000000000000000C40C402046
S2144039EC2C0D4020940D40200000000000000000EC
S2144039FC0000000000000000000000000000000076
S214403A0C0000000000000000000000000000000065
S214403A1C0000000000000000000000000000000055
S214403A2C0000000000000000000000000000000045
S214403A3C0000000000000000000000000000000035
S214403A4C0000000000000000000000000000000025
S214403A5C0000000000000000000000000000000015
S214403A6C0000000000000000000000000000000005
S214403A7C00000000000000000000000000000000F5
S214403A8C01000000000000000E33CDAB34126DE692
S214403A9CECDE05000B0000000000000000000000FB
S214403AAC00000000000000000000000000000000C5
S214403ABC00000000000000000000000000000000B5
S214403ACC00000000000000000000000000000000A5
S214403ADC0000000000000000000000000000000095
S208403E0C900E40206F
S804400C3976
